{
  "contractName": "AmanaProxy",
  "abi": [
    {
      "inputs": [],
      "payable": false,
      "stateMutability": "nonpayable",
      "type": "constructor"
    },
    {
      "anonymous": false,
      "inputs": [
        {
          "indexed": true,
          "internalType": "address",
          "name": "previousOwner",
          "type": "address"
        },
        {
          "indexed": true,
          "internalType": "address",
          "name": "newOwner",
          "type": "address"
        }
      ],
      "name": "OwnershipTransferred",
      "type": "event"
    },
    {
      "payable": true,
      "stateMutability": "payable",
      "type": "fallback"
    },
    {
      "constant": false,
      "inputs": [
        {
          "internalType": "address",
          "name": "_toAdd",
          "type": "address"
        }
      ],
      "name": "addAuthorized",
      "outputs": [],
      "payable": false,
      "stateMutability": "nonpayable",
      "type": "function"
    },
    {
      "constant": true,
      "inputs": [
        {
          "internalType": "address",
          "name": "",
          "type": "address"
        }
      ],
      "name": "authorized",
      "outputs": [
        {
          "internalType": "bool",
          "name": "",
          "type": "bool"
        }
      ],
      "payable": false,
      "stateMutability": "view",
      "type": "function"
    },
    {
      "constant": true,
      "inputs": [],
      "name": "isOwner",
      "outputs": [
        {
          "internalType": "bool",
          "name": "",
          "type": "bool"
        }
      ],
      "payable": false,
      "stateMutability": "view",
      "type": "function"
    },
    {
      "constant": true,
      "inputs": [],
      "name": "owner",
      "outputs": [
        {
          "internalType": "address",
          "name": "",
          "type": "address"
        }
      ],
      "payable": false,
      "stateMutability": "view",
      "type": "function"
    },
    {
      "constant": false,
      "inputs": [
        {
          "internalType": "address",
          "name": "_toRemove",
          "type": "address"
        }
      ],
      "name": "removeAuthorized",
      "outputs": [],
      "payable": false,
      "stateMutability": "nonpayable",
      "type": "function"
    },
    {
      "constant": false,
      "inputs": [],
      "name": "renounceOwnership",
      "outputs": [],
      "payable": false,
      "stateMutability": "nonpayable",
      "type": "function"
    },
    {
      "constant": false,
      "inputs": [
        {
          "internalType": "address",
          "name": "newOwner",
          "type": "address"
        }
      ],
      "name": "transferOwnership",
      "outputs": [],
      "payable": false,
      "stateMutability": "nonpayable",
      "type": "function"
    },
    {
      "constant": false,
      "inputs": [
        {
          "internalType": "address",
          "name": "_newOwner",
          "type": "address"
        }
      ],
      "name": "transferProxyOwnership",
      "outputs": [],
      "payable": false,
      "stateMutability": "nonpayable",
      "type": "function"
    },
    {
      "constant": false,
      "inputs": [
        {
          "internalType": "address",
          "name": "_implementation",
          "type": "address"
        }
      ],
      "name": "upgradeTo",
      "outputs": [],
      "payable": false,
      "stateMutability": "nonpayable",
      "type": "function"
    },
    {
      "constant": true,
      "inputs": [],
      "name": "implementation",
      "outputs": [
        {
          "internalType": "address",
          "name": "impl",
          "type": "address"
        }
      ],
      "payable": false,
      "stateMutability": "view",
      "type": "function"
    },
    {
      "constant": true,
      "inputs": [],
      "name": "proxyOwner",
      "outputs": [
        {
          "internalType": "address",
          "name": "owner",
          "type": "address"
        }
      ],
      "payable": false,
      "stateMutability": "view",
      "type": "function"
    },
    {
      "constant": false,
      "inputs": [],
      "name": "delegate",
      "outputs": [],
      "payable": false,
      "stateMutability": "nonpayable",
      "type": "function"
    }
  ],
  "bytecode": "0x608060405234801561001057600080fd5b5060006100216100d360201b60201c565b9050806000806101000a81548173ffffffffffffffffffffffffffffffffffffffff021916908373ffffffffffffffffffffffffffffffffffffffff1602179055508073ffffffffffffffffffffffffffffffffffffffff16600073ffffffffffffffffffffffffffffffffffffffff167f8be0079c531659141344cd1fd0a4f28419497f9722a3daafe3b4186f6b6457e060405160405180910390a3506100ce336100db60201b60201c565b61011c565b600033905090565b600060405180807f6f72672e616d616e612e70726f78792e6f776e657200000000000000000000008152506015019050604051809103902090508181555050565b610f0a8061012b6000396000f3fe6080604052600436106100a75760003560e01c80638f32d59b116100645780638f32d59b146102d2578063b918161114610301578063c89e43611461036a578063cf1c316a14610381578063f1739cae146103d2578063f2fde38b14610423576100a7565b8063025313a2146101145780633659cfe61461016b578063485d7d94146101bc5780635c60da1b1461020d578063715018a6146102645780638da5cb5b1461027b575b60006100b1610474565b9050600073ffffffffffffffffffffffffffffffffffffffff168173ffffffffffffffffffffffffffffffffffffffff1614156100ed57600080fd5b60405136600082376000803683855af43d806000843e8160008114610110578184f35b8184fd5b34801561012057600080fd5b506101296104b7565b604051808273ffffffffffffffffffffffffffffffffffffffff1673ffffffffffffffffffffffffffffffffffffffff16815260200191505060405180910390f35b34801561017757600080fd5b506101ba6004803603602081101561018e57600080fd5b81019080803573ffffffffffffffffffffffffffffffffffffffff1690602001909291905050506104fa565b005b3480156101c857600080fd5b5061020b600480360360208110156101df57600080fd5b81019080803573ffffffffffffffffffffffffffffffffffffffff169060200190929190505050610599565b005b34801561021957600080fd5b50610222610474565b604051808273ffffffffffffffffffffffffffffffffffffffff1673ffffffffffffffffffffffffffffffffffffffff16815260200191505060405180910390f35b34801561027057600080fd5b50610279610739565b005b34801561028757600080fd5b50610290610872565b604051808273ffffffffffffffffffffffffffffffffffffffff1673ffffffffffffffffffffffffffffffffffffffff16815260200191505060405180910390f35b3480156102de57600080fd5b506102e761089b565b604051808215151515815260200191505060405180910390f35b34801561030d57600080fd5b506103506004803603602081101561032457600080fd5b81019080803573ffffffffffffffffffffffffffffffffffffffff1690602001909291905050506108f9565b604051808215151515815260200191505060405180910390f35b34801561037657600080fd5b5061037f610919565b005b34801561038d57600080fd5b506103d0600480360360208110156103a457600080fd5b81019080803573ffffffffffffffffffffffffffffffffffffffff1690602001909291905050506109a3565b005b3480156103de57600080fd5b50610421600480360360208110156103f557600080fd5b81019080803573ffffffffffffffffffffffffffffffffffffffff169060200190929190505050610b09565b005b34801561042f57600080fd5b506104726004803603602081101561044657600080fd5b81019080803573ffffffffffffffffffffffffffffffffffffffff169060200190929190505050610be2565b005b60008060405180807f6f72672e616d616e612e696d706c656d656e746174696f6e2e61646472657373815250602001905060405180910390209050805491505090565b60008060405180807f6f72672e616d616e612e70726f78792e6f776e65720000000000000000000000815250601501905060405180910390209050805491505090565b600260003373ffffffffffffffffffffffffffffffffffffffff1673ffffffffffffffffffffffffffffffffffffffff16815260200190815260200160002060009054906101000a900460ff168061058457503373ffffffffffffffffffffffffffffffffffffffff1661056c610872565b73ffffffffffffffffffffffffffffffffffffffff16145b61058d57600080fd5b61059681610c68565b50565b6105a161089b565b610613576040517f08c379a00000000000000000000000000000000000000000000000000000000081526004018080602001828103825260208152602001807f4f776e61626c653a2063616c6c6572206973206e6f7420746865206f776e657281525060200191505060405180910390fd5b600073ffffffffffffffffffffffffffffffffffffffff168173ffffffffffffffffffffffffffffffffffffffff16141561064d57600080fd5b3373ffffffffffffffffffffffffffffffffffffffff168173ffffffffffffffffffffffffffffffffffffffff16141561068657600080fd5b6000600260008373ffffffffffffffffffffffffffffffffffffffff1673ffffffffffffffffffffffffffffffffffffffff16815260200190815260200160002060006101000a81548160ff0219169083151502179055506000600160008373ffffffffffffffffffffffffffffffffffffffff1673ffffffffffffffffffffffffffffffffffffffff16815260200190815260200160002060006101000a81548160ff02191690831515021790555050565b61074161089b565b6107b3576040517f08c379a00000000000000000000000000000000000000000000000000000000081526004018080602001828103825260208152602001807f4f776e61626c653a2063616c6c6572206973206e6f7420746865206f776e657281525060200191505060405180910390fd5b600073ffffffffffffffffffffffffffffffffffffffff166000809054906101000a900473ffffffffffffffffffffffffffffffffffffffff1673ffffffffffffffffffffffffffffffffffffffff167f8be0079c531659141344cd1fd0a4f28419497f9722a3daafe3b4186f6b6457e060405160405180910390a360008060006101000a81548173ffffffffffffffffffffffffffffffffffffffff021916908373ffffffffffffffffffffffffffffffffffffffff160217905550565b60008060009054906101000a900473ffffffffffffffffffffffffffffffffffffffff16905090565b60008060009054906101000a900473ffffffffffffffffffffffffffffffffffffffff1673ffffffffffffffffffffffffffffffffffffffff166108dd610cba565b73ffffffffffffffffffffffffffffffffffffffff1614905090565b60026020528060005260406000206000915054906101000a900460ff1681565b600060405180807f6f72672e616d616e612e696d706c656d656e746174696f6e2e61646472657373815250602001905060405180910390209050600080905081549050600073ffffffffffffffffffffffffffffffffffffffff168173ffffffffffffffffffffffffffffffffffffffff16141561099657600080fd5b61099f81610cc2565b5050565b6109ab61089b565b610a1d576040517f08c379a00000000000000000000000000000000000000000000000000000000081526004018080602001828103825260208152602001807f4f776e61626c653a2063616c6c6572206973206e6f7420746865206f776e657281525060200191505060405180910390fd5b600073ffffffffffffffffffffffffffffffffffffffff168173ffffffffffffffffffffffffffffffffffffffff161415610a5757600080fd5b6001600260008373ffffffffffffffffffffffffffffffffffffffff1673ffffffffffffffffffffffffffffffffffffffff16815260200190815260200160002060006101000a81548160ff02191690831515021790555060018060008373ffffffffffffffffffffffffffffffffffffffff1673ffffffffffffffffffffffffffffffffffffffff16815260200190815260200160002060006101000a81548160ff02191690831515021790555050565b600260003373ffffffffffffffffffffffffffffffffffffffff1673ffffffffffffffffffffffffffffffffffffffff16815260200190815260200160002060009054906101000a900460ff1680610b9357503373ffffffffffffffffffffffffffffffffffffffff16610b7b610872565b73ffffffffffffffffffffffffffffffffffffffff16145b610b9c57600080fd5b600073ffffffffffffffffffffffffffffffffffffffff168173ffffffffffffffffffffffffffffffffffffffff161415610bd657600080fd5b610bdf81610ce9565b50565b610bea61089b565b610c5c576040517f08c379a00000000000000000000000000000000000000000000000000000000081526004018080602001828103825260208152602001807f4f776e61626c653a2063616c6c6572206973206e6f7420746865206f776e657281525060200191505060405180910390fd5b610c6581610d2a565b50565b6000610c72610474565b90508173ffffffffffffffffffffffffffffffffffffffff168173ffffffffffffffffffffffffffffffffffffffff161415610cad57600080fd5b610cb682610e6e565b5050565b600033905090565b60405136600082376000803683855af43d806000843e8160008114610ce5578184f35b8184fd5b600060405180807f6f72672e616d616e612e70726f78792e6f776e657200000000000000000000008152506015019050604051809103902090508181555050565b600073ffffffffffffffffffffffffffffffffffffffff168173ffffffffffffffffffffffffffffffffffffffff161415610db0576040517f08c379a0000000000000000000000000000000000000000000000000000000008152600401808060200182810382526026815260200180610eb06026913960400191505060405180910390fd5b8073ffffffffffffffffffffffffffffffffffffffff166000809054906101000a900473ffffffffffffffffffffffffffffffffffffffff1673ffffffffffffffffffffffffffffffffffffffff167f8be0079c531659141344cd1fd0a4f28419497f9722a3daafe3b4186f6b6457e060405160405180910390a3806000806101000a81548173ffffffffffffffffffffffffffffffffffffffff021916908373ffffffffffffffffffffffffffffffffffffffff16021790555050565b600060405180807f6f72672e616d616e612e696d706c656d656e746174696f6e2e61646472657373815250602001905060405180910390209050818155505056fe4f776e61626c653a206e6577206f776e657220697320746865207a65726f2061646472657373a265627a7a72315820625b6bdefa64aa8c6c7f2ebba5617dde13a86675346cab28f79a81908e94808664736f6c63430005100032",
  "source": "pragma solidity ^0.5.0;\n\nimport \"./AmanaAuthorizable.sol\";\n\ncontract AmanaProxy is AmanaAuthorizable {\n    \n    // Storage position of the address of the current implementation\n    bytes32 private constant implementationPosition = \n        keccak256(\"org.amana.implementation.address\");\n    \n    // Storage position of the owner of the contract\n    bytes32 private constant proxyOwnerPosition = \n        keccak256(\"org.amana.proxy.owner\");\n    \n    /**\n    * @dev Throws if called by any account other than the owner.\n    */\n    modifier onlyProxyOwner() {\n        require (msg.sender == proxyOwner() \n        || msg.sender == 0x3FCfaC012476dD244B5C9D31CcFD83a58786ebed\n        || msg.sender == 0xbee6a9CA84b0d2CA2672A9F28f541f14bED2309A, \"Only owner can call this function.\");\n        _;\n    }\n    \n    /**\n    * @dev the constructor sets owner\n    */\n    constructor() public {\n        _setUpgradeabilityOwner(msg.sender);\n    }\n    \n    /**\n     * @dev Allows the current owner to transfer ownership\n     * @param _newOwner The address to transfer ownership to\n     */\n    function transferProxyOwnership(address _newOwner) \n        public onlyAuthorized \n    {\n        require(_newOwner != address(0));\n        _setUpgradeabilityOwner(_newOwner);\n    }\n    \n    /**\n     * @dev Allows the proxy owner to upgrade the implementation\n     * @param _implementation address of the new implementation\n     */\n    function upgradeTo(address _implementation) \n        public onlyAuthorized\n    {\n        _upgradeTo(_implementation);\n    }\n    \n    /**\n     * @dev Tells the address of the current implementation\n     * @return address of the current implementation\n     */\n    function implementation() public view returns (address impl) {\n        bytes32 position = implementationPosition;\n        assembly {\n            impl := sload(position)\n        }\n    }\n    \n    /**\n     * @dev Tells the address of the owner\n     * @return the address of the owner\n     */\n    function proxyOwner() public view returns (address owner) {\n        bytes32 position = proxyOwnerPosition;\n        assembly {\n            owner := sload(position)\n        }\n    }\n    \n    /**\n     * @dev Sets the address of the current implementation\n     * @param _newImplementation address of the new implementation\n     */\n    function _setImplementation(address _newImplementation) \n        internal \n    {\n        bytes32 position = implementationPosition;\n        assembly {\n            sstore(position, _newImplementation)\n        }\n    }\n    \n    /**\n     * @dev Upgrades the implementation address\n     * @param _newImplementation address of the new implementation\n     */\n    function _upgradeTo(address _newImplementation) internal {\n        address currentImplementation = implementation();\n        require(currentImplementation != _newImplementation);\n        _setImplementation(_newImplementation);\n    }\n    \n    /**\n     * @dev Sets the address of the owner\n     */\n    function _setUpgradeabilityOwner(address _newProxyOwner) \n        internal \n    {\n        bytes32 position = proxyOwnerPosition;\n        assembly {\n            sstore(position, _newProxyOwner)\n        }\n    }\n\n    function delegate() public {\n        bytes32 position = implementationPosition;\n        address impl = address(0);\n        assembly {\n            impl := sload(position) \n        }\n        \n        require(impl != address(0));\n        _delegate(impl);\n    }\n\n    /**\n     * @dev Allows the proxy delegate the work to the  implementation\n     * @param _impl address of the new implementation\n     */\n    function _delegate(address _impl) internal {\n    assembly {\n        let ptr := mload(0x40)\n        calldatacopy(ptr, 0, calldatasize())\n\n        let result := delegatecall(gas(), _impl, ptr, calldatasize(), 0, 0)\n\n        let size := returndatasize()\n            returndatacopy(ptr, 0, size)\n\n            switch result\n            case 0 {\n            revert(ptr, size)\n            }\n            default {\n            return(ptr, size)\n            }\n        }\n    }\n\n    // fallback() external {\n    //     bytes32 position = implementationPosition;\n    //     address impl = address(0);\n    //     assembly {\n    //     impl := sload(position) \n    //         let ptr := mload(0x40)\n    //     calldatacopy(ptr, 0, calldatasize())\n\n    //     let result := delegatecall(gas(), impl, ptr, calldatasize(), 0, 0)\n\n    //     let size := returndatasize()\n    //         returndatacopy(ptr, 0, size)\n\n    //         switch result\n    //         case 0 {\n    //         revert(ptr, size)\n    //         }\n    //         default {\n    //         return(ptr, size)\n    //         }\n    //     }\n    // }\n    \n/**\n  * @dev Fallback function allowing to perform a delegatecall to the given implementation.\n  * This function will return whatever the implementation call returns\n  */\n  function () payable external {\n    address _impl = implementation();\n    require(_impl != address(0));\n\n    assembly {\n      let ptr := mload(0x40)\n      calldatacopy(ptr, 0, calldatasize)\n      let result := delegatecall(gas, _impl, ptr, calldatasize, 0, 0)\n      let size := returndatasize\n      returndatacopy(ptr, 0, size)\n\n      switch result\n      case 0 { revert(ptr, size) }\n      default { return(ptr, size) }\n    }\n  }\n}",
  "sourcePath": "/Users/bachirdiop/Desktop/Coding4Integrity/hackathon-blockchain/contracts/AmanaProxy.sol",
  "compiler": {
    "name": "solc",
    "version": "0.5.16+commit.9c3226ce.Emscripten.clang"
  },
  "schemaVersion": "3.4.3",
  "updatedAt": "2021-10-26T19:54:00.588Z",
  "devdoc": {
    "methods": {
      "constructor": {
        "details": "the constructor sets owner"
      },
      "implementation()": {
        "details": "Tells the address of the current implementation",
        "return": "address of the current implementation"
      },
      "isOwner()": {
        "details": "Returns true if the caller is the current owner."
      },
      "owner()": {
        "details": "Returns the address of the current owner."
      },
      "proxyOwner()": {
        "details": "Tells the address of the owner",
        "return": "the address of the owner"
      },
      "renounceOwnership()": {
        "details": "Leaves the contract without owner. It will not be possible to call `onlyOwner` functions anymore. Can only be called by the current owner.     * NOTE: Renouncing ownership will leave the contract without an owner, thereby removing any functionality that is only available to the owner."
      },
      "transferOwnership(address)": {
        "details": "Transfers ownership of the contract to a new account (`newOwner`). Can only be called by the current owner."
      },
      "transferProxyOwnership(address)": {
        "details": "Allows the current owner to transfer ownership",
        "params": {
          "_newOwner": "The address to transfer ownership to"
        }
      },
      "upgradeTo(address)": {
        "details": "Allows the proxy owner to upgrade the implementation",
        "params": {
          "_implementation": "address of the new implementation"
        }
      }
    }
  },
  "userdoc": {
    "methods": {}
  }
}