{
  "contractName": "AmanaMarketplace",
  "abi": [
    {
      "inputs": [
        {
          "internalType": "address",
          "name": "_currencyTokenAddress",
          "type": "address"
        },
        {
          "internalType": "address",
          "name": "_itemTokenAddress",
          "type": "address"
        }
      ],
      "payable": false,
      "stateMutability": "nonpayable",
      "type": "constructor"
    },
    {
      "anonymous": false,
      "inputs": [
        {
          "indexed": false,
          "internalType": "uint256",
          "name": "ad",
          "type": "uint256"
        },
        {
          "indexed": false,
          "internalType": "bytes32",
          "name": "status",
          "type": "bytes32"
        }
      ],
      "name": "BidStatusChange",
      "type": "event"
    },
    {
      "anonymous": false,
      "inputs": [
        {
          "indexed": true,
          "internalType": "address",
          "name": "previousOwner",
          "type": "address"
        },
        {
          "indexed": true,
          "internalType": "address",
          "name": "newOwner",
          "type": "address"
        }
      ],
      "name": "OwnershipTransferred",
      "type": "event"
    },
    {
      "anonymous": false,
      "inputs": [
        {
          "indexed": false,
          "internalType": "uint256",
          "name": "ad",
          "type": "uint256"
        },
        {
          "indexed": false,
          "internalType": "bytes32",
          "name": "status",
          "type": "bytes32"
        }
      ],
      "name": "TradeStatusChange",
      "type": "event"
    },
    {
      "constant": false,
      "inputs": [
        {
          "internalType": "address",
          "name": "_toAdd",
          "type": "address"
        }
      ],
      "name": "addAuthorized",
      "outputs": [],
      "payable": false,
      "stateMutability": "nonpayable",
      "type": "function"
    },
    {
      "constant": true,
      "inputs": [
        {
          "internalType": "address",
          "name": "",
          "type": "address"
        }
      ],
      "name": "authorized",
      "outputs": [
        {
          "internalType": "bool",
          "name": "",
          "type": "bool"
        }
      ],
      "payable": false,
      "stateMutability": "view",
      "type": "function"
    },
    {
      "constant": true,
      "inputs": [
        {
          "internalType": "uint256",
          "name": "",
          "type": "uint256"
        }
      ],
      "name": "bids",
      "outputs": [
        {
          "internalType": "address",
          "name": "bidder",
          "type": "address"
        },
        {
          "internalType": "uint256",
          "name": "item",
          "type": "uint256"
        },
        {
          "internalType": "uint256",
          "name": "price",
          "type": "uint256"
        },
        {
          "internalType": "bytes32",
          "name": "status",
          "type": "bytes32"
        },
        {
          "internalType": "bytes32",
          "name": "visibility",
          "type": "bytes32"
        }
      ],
      "payable": false,
      "stateMutability": "view",
      "type": "function"
    },
    {
      "constant": true,
      "inputs": [],
      "name": "isOwner",
      "outputs": [
        {
          "internalType": "bool",
          "name": "",
          "type": "bool"
        }
      ],
      "payable": false,
      "stateMutability": "view",
      "type": "function"
    },
    {
      "constant": true,
      "inputs": [],
      "name": "owner",
      "outputs": [
        {
          "internalType": "address",
          "name": "",
          "type": "address"
        }
      ],
      "payable": false,
      "stateMutability": "view",
      "type": "function"
    },
    {
      "constant": true,
      "inputs": [],
      "name": "proxyOwner",
      "outputs": [
        {
          "internalType": "address",
          "name": "owner",
          "type": "address"
        }
      ],
      "payable": false,
      "stateMutability": "view",
      "type": "function"
    },
    {
      "constant": false,
      "inputs": [
        {
          "internalType": "address",
          "name": "_toRemove",
          "type": "address"
        }
      ],
      "name": "removeAuthorized",
      "outputs": [],
      "payable": false,
      "stateMutability": "nonpayable",
      "type": "function"
    },
    {
      "constant": false,
      "inputs": [],
      "name": "renounceOwnership",
      "outputs": [],
      "payable": false,
      "stateMutability": "nonpayable",
      "type": "function"
    },
    {
      "constant": true,
      "inputs": [
        {
          "internalType": "uint256",
          "name": "",
          "type": "uint256"
        }
      ],
      "name": "trades",
      "outputs": [
        {
          "internalType": "address",
          "name": "poster",
          "type": "address"
        },
        {
          "internalType": "uint256",
          "name": "item",
          "type": "uint256"
        },
        {
          "internalType": "uint256",
          "name": "price",
          "type": "uint256"
        },
        {
          "internalType": "bytes32",
          "name": "status",
          "type": "bytes32"
        },
        {
          "internalType": "bytes32",
          "name": "tradeType",
          "type": "bytes32"
        },
        {
          "internalType": "uint256",
          "name": "bidCounter",
          "type": "uint256"
        }
      ],
      "payable": false,
      "stateMutability": "view",
      "type": "function"
    },
    {
      "constant": false,
      "inputs": [
        {
          "internalType": "address",
          "name": "newOwner",
          "type": "address"
        }
      ],
      "name": "transferOwnership",
      "outputs": [],
      "payable": false,
      "stateMutability": "nonpayable",
      "type": "function"
    },
    {
      "constant": true,
      "inputs": [
        {
          "internalType": "uint256",
          "name": "_trade",
          "type": "uint256"
        }
      ],
      "name": "getAllTradeBids",
      "outputs": [
        {
          "components": [
            {
              "internalType": "address",
              "name": "bidder",
              "type": "address"
            },
            {
              "internalType": "uint256",
              "name": "item",
              "type": "uint256"
            },
            {
              "internalType": "uint256",
              "name": "price",
              "type": "uint256"
            },
            {
              "internalType": "bytes32",
              "name": "status",
              "type": "bytes32"
            },
            {
              "internalType": "bytes32",
              "name": "visibility",
              "type": "bytes32"
            }
          ],
          "internalType": "struct AmanaMarketplace.Bid[]",
          "name": "",
          "type": "tuple[]"
        }
      ],
      "payable": false,
      "stateMutability": "view",
      "type": "function"
    },
    {
      "constant": true,
      "inputs": [
        {
          "internalType": "uint256",
          "name": "_trade",
          "type": "uint256"
        }
      ],
      "name": "getTrade",
      "outputs": [
        {
          "internalType": "address",
          "name": "",
          "type": "address"
        },
        {
          "internalType": "uint256",
          "name": "",
          "type": "uint256"
        },
        {
          "internalType": "uint256",
          "name": "",
          "type": "uint256"
        },
        {
          "internalType": "bytes32",
          "name": "",
          "type": "bytes32"
        },
        {
          "internalType": "bytes32",
          "name": "",
          "type": "bytes32"
        },
        {
          "components": [
            {
              "internalType": "address",
              "name": "bidder",
              "type": "address"
            },
            {
              "internalType": "uint256",
              "name": "item",
              "type": "uint256"
            },
            {
              "internalType": "uint256",
              "name": "price",
              "type": "uint256"
            },
            {
              "internalType": "bytes32",
              "name": "status",
              "type": "bytes32"
            },
            {
              "internalType": "bytes32",
              "name": "visibility",
              "type": "bytes32"
            }
          ],
          "internalType": "struct AmanaMarketplace.Bid[]",
          "name": "",
          "type": "tuple[]"
        }
      ],
      "payable": false,
      "stateMutability": "view",
      "type": "function"
    },
    {
      "constant": true,
      "inputs": [
        {
          "internalType": "uint256",
          "name": "_trade",
          "type": "uint256"
        },
        {
          "internalType": "uint256",
          "name": "_bid",
          "type": "uint256"
        }
      ],
      "name": "getBid",
      "outputs": [
        {
          "internalType": "address",
          "name": "",
          "type": "address"
        },
        {
          "internalType": "uint256",
          "name": "",
          "type": "uint256"
        },
        {
          "internalType": "uint256",
          "name": "",
          "type": "uint256"
        },
        {
          "internalType": "bytes32",
          "name": "",
          "type": "bytes32"
        },
        {
          "internalType": "address",
          "name": "",
          "type": "address"
        },
        {
          "internalType": "uint256",
          "name": "",
          "type": "uint256"
        },
        {
          "internalType": "uint256",
          "name": "",
          "type": "uint256"
        },
        {
          "internalType": "bytes32",
          "name": "",
          "type": "bytes32"
        }
      ],
      "payable": false,
      "stateMutability": "view",
      "type": "function"
    },
    {
      "constant": false,
      "inputs": [
        {
          "internalType": "uint256",
          "name": "_item",
          "type": "uint256"
        },
        {
          "internalType": "uint256",
          "name": "_price",
          "type": "uint256"
        },
        {
          "internalType": "bytes32",
          "name": "_visibility",
          "type": "bytes32"
        }
      ],
      "name": "openBid",
      "outputs": [],
      "payable": false,
      "stateMutability": "nonpayable",
      "type": "function"
    },
    {
      "constant": false,
      "inputs": [
        {
          "internalType": "uint256",
          "name": "_item",
          "type": "uint256"
        },
        {
          "internalType": "uint256",
          "name": "_price",
          "type": "uint256"
        },
        {
          "internalType": "bytes32",
          "name": "_tradeType",
          "type": "bytes32"
        }
      ],
      "name": "openTrade",
      "outputs": [],
      "payable": false,
      "stateMutability": "nonpayable",
      "type": "function"
    },
    {
      "constant": false,
      "inputs": [
        {
          "internalType": "uint256",
          "name": "_trade",
          "type": "uint256"
        }
      ],
      "name": "executeTrade",
      "outputs": [],
      "payable": false,
      "stateMutability": "nonpayable",
      "type": "function"
    },
    {
      "constant": false,
      "inputs": [
        {
          "internalType": "uint256",
          "name": "_trade",
          "type": "uint256"
        },
        {
          "internalType": "uint256",
          "name": "_bid",
          "type": "uint256"
        }
      ],
      "name": "executeBid",
      "outputs": [],
      "payable": false,
      "stateMutability": "nonpayable",
      "type": "function"
    },
    {
      "constant": false,
      "inputs": [
        {
          "internalType": "uint256",
          "name": "_trade",
          "type": "uint256"
        }
      ],
      "name": "cancelTrade",
      "outputs": [],
      "payable": false,
      "stateMutability": "nonpayable",
      "type": "function"
    },
    {
      "constant": false,
      "inputs": [
        {
          "internalType": "uint256",
          "name": "_trade",
          "type": "uint256"
        },
        {
          "internalType": "uint256",
          "name": "_bid",
          "type": "uint256"
        }
      ],
      "name": "cancelBid",
      "outputs": [],
      "payable": false,
      "stateMutability": "nonpayable",
      "type": "function"
    },
    {
      "constant": false,
      "inputs": [
        {
          "internalType": "address",
          "name": "_currencyTokenAddress",
          "type": "address"
        },
        {
          "internalType": "address",
          "name": "_itemTokenAddress",
          "type": "address"
        }
      ],
      "name": "lateInitializee",
      "outputs": [],
      "payable": false,
      "stateMutability": "nonpayable",
      "type": "function"
    }
  ],
  "bytecode": "0x60806040523480156200001157600080fd5b5060405162003176380380620031768339818101604052620000379190810190620001a0565b6000620000496200018160201b60201c565b9050806000806101000a81548173ffffffffffffffffffffffffffffffffffffffff021916908373ffffffffffffffffffffffffffffffffffffffff1602179055508073ffffffffffffffffffffffffffffffffffffffff16600073ffffffffffffffffffffffffffffffffffffffff167f8be0079c531659141344cd1fd0a4f28419497f9722a3daafe3b4186f6b6457e060405160405180910390a35081600360006101000a81548173ffffffffffffffffffffffffffffffffffffffff021916908373ffffffffffffffffffffffffffffffffffffffff16021790555080600460006101000a81548173ffffffffffffffffffffffffffffffffffffffff021916908373ffffffffffffffffffffffffffffffffffffffff1602179055506000600781905550600060088190555050506200022f565b600033905090565b6000815190506200019a8162000215565b92915050565b60008060408385031215620001b457600080fd5b6000620001c48582860162000189565b9250506020620001d78582860162000189565b9150509250929050565b6000620001ee82620001f5565b9050919050565b600073ffffffffffffffffffffffffffffffffffffffff82169050919050565b6200022081620001e1565b81146200022c57600080fd5b50565b612f37806200023f6000396000f3fe608060405234801561001057600080fd5b506004361061012c5760003560e01c8063582c7ffd116100ad578063a9c7c53611610071578063a9c7c53614610342578063b91816111461035e578063cf1c316a1461038e578063d0ff01bb146103aa578063f2fde38b146103c65761012c565b8063582c7ffd146102a9578063715018a6146102e05780638da5cb5b146102ea5780638f32d59b14610308578063a49e945d146103265761012c565b80632ebe0f16116100f45780632ebe0f16146101f15780634423c5f11461020d578063485d7d94146102415780634b3936051461025d5780634d2ef416146102795761012c565b8063025313a21461013157806302d2838b1461014f57806309ec6cc71461016b5780631e6c598e146101875780632db25e05146101bc575b600080fd5b6101396103e2565b604051610146919061297a565b60405180910390f35b610169600480360361016491908101906123c0565b6103f1565b005b610185600480360361018091908101906123c0565b610732565b005b6101a1600480360361019c91908101906123c0565b6109c9565b6040516101b396959493929190612b73565b60405180910390f35b6101d660048036036101d191908101906123c0565b610a25565b6040516101e896959493929190612b0b565b60405180910390f35b61020b6004803603610206919081019061235b565b610b1d565b005b610227600480360361022291908101906123c0565b610bab565b604051610238959493929190612ab8565b60405180910390f35b61025b60048036036102569190810190612332565b610c01565b005b610277600480360361027291908101906123e9565b610d6e565b005b610293600480360361028e91908101906123c0565b61113b565b6040516102a09190612bd4565b60405180910390f35b6102c360048036036102be91908101906123e9565b611293565b6040516102d7989796959493929190612a3a565b60405180910390f35b6102e8611450565b005b6102f2611556565b6040516102ff919061297a565b60405180910390f35b61031061157f565b60405161031d9190612bf6565b60405180910390f35b610340600480360361033b9190810190612425565b6115dd565b005b61035c600480360361035791908101906123e9565b6117b5565b005b61037860048036036103739190810190612332565b611cae565b6040516103859190612bf6565b60405180910390f35b6103a860048036036103a39190810190612332565b611cce565b005b6103c460048036036103bf9190810190612425565b611e01565b005b6103e060048036036103db9190810190612332565b61206d565b005b60008060019050805491505090565b6103f96121f6565b600560008381526020019081526020016000206040518060c00160405290816000820160009054906101000a900473ffffffffffffffffffffffffffffffffffffffff1673ffffffffffffffffffffffffffffffffffffffff1673ffffffffffffffffffffffffffffffffffffffff1681526020016001820154815260200160028201548152602001600382015481526020016004820154815260200160068201548152505090507f4f70656e00000000000000000000000000000000000000000000000000000000816060015114610507576040517f08c379a00000000000000000000000000000000000000000000000000000000081526004016104fe90612c31565b60405180910390fd5b7f4f6666657200000000000000000000000000000000000000000000000000000081608001511461056d576040517f08c379a000000000000000000000000000000000000000000000000000000000815260040161056490612d11565b60405180910390fd5b600360009054906101000a900473ffffffffffffffffffffffffffffffffffffffff1673ffffffffffffffffffffffffffffffffffffffff166323b872dd33836000015184604001516040518463ffffffff1660e01b81526004016105d493929190612995565b602060405180830381600087803b1580156105ee57600080fd5b505af1158015610602573d6000803e3d6000fd5b505050506040513d601f19601f820116820180604052506106269190810190612397565b50600460009054906101000a900473ffffffffffffffffffffffffffffffffffffffff1673ffffffffffffffffffffffffffffffffffffffff166323b872dd303384602001516040518463ffffffff1660e01b815260040161068a939291906129cc565b600060405180830381600087803b1580156106a457600080fd5b505af11580156106b8573d6000803e3d6000fd5b505050507f457865637574656400000000000000000000000000000000000000000000000060056000848152602001908152602001600020600301819055507f4d38ed2c5ea671a5ccddc331f0ebebd94a60aaf6e572543497485d4d148f9edf826040516107269190612d51565b60405180910390a15050565b61073a6121f6565b600560008381526020019081526020016000206040518060c00160405290816000820160009054906101000a900473ffffffffffffffffffffffffffffffffffffffff1673ffffffffffffffffffffffffffffffffffffffff1673ffffffffffffffffffffffffffffffffffffffff168152602001600182015481526020016002820154815260200160038201548152602001600482015481526020016006820154815250509050806000015173ffffffffffffffffffffffffffffffffffffffff163373ffffffffffffffffffffffffffffffffffffffff1614610854576040517f08c379a000000000000000000000000000000000000000000000000000000000815260040161084b90612c51565b60405180910390fd5b7f4f70656e000000000000000000000000000000000000000000000000000000008160600151146108ba576040517f08c379a00000000000000000000000000000000000000000000000000000000081526004016108b190612c31565b60405180910390fd5b600460009054906101000a900473ffffffffffffffffffffffffffffffffffffffff1673ffffffffffffffffffffffffffffffffffffffff166323b872dd30836000015184602001516040518463ffffffff1660e01b815260040161092193929190612a03565b600060405180830381600087803b15801561093b57600080fd5b505af115801561094f573d6000803e3d6000fd5b505050507f43616e63656c6c6564000000000000000000000000000000000000000000000060056000848152602001908152602001600020600301819055507f4d38ed2c5ea671a5ccddc331f0ebebd94a60aaf6e572543497485d4d148f9edf826040516109bd9190612d78565b60405180910390a15050565b60056020528060005260406000206000915090508060000160009054906101000a900473ffffffffffffffffffffffffffffffffffffffff16908060010154908060020154908060030154908060040154908060060154905086565b60008060008060006060610a376121f6565b600560008981526020019081526020016000206040518060c00160405290816000820160009054906101000a900473ffffffffffffffffffffffffffffffffffffffff1673ffffffffffffffffffffffffffffffffffffffff1673ffffffffffffffffffffffffffffffffffffffff1681526020016001820154815260200160028201548152602001600382015481526020016004820154815260200160068201548152505090506060610aea8961113b565b90508160000151826020015183604001518460600151856080015185975097509750975097509750505091939550919395565b81600360006101000a81548173ffffffffffffffffffffffffffffffffffffffff021916908373ffffffffffffffffffffffffffffffffffffffff16021790555080600460006101000a81548173ffffffffffffffffffffffffffffffffffffffff021916908373ffffffffffffffffffffffffffffffffffffffff16021790555060006007819055505050565b60066020528060005260406000206000915090508060000160009054906101000a900473ffffffffffffffffffffffffffffffffffffffff16908060010154908060020154908060030154908060040154905085565b610c0961157f565b610c48576040517f08c379a0000000000000000000000000000000000000000000000000000000008152600401610c3f90612cd1565b60405180910390fd5b600073ffffffffffffffffffffffffffffffffffffffff168173ffffffffffffffffffffffffffffffffffffffff161415610c8257600080fd5b3373ffffffffffffffffffffffffffffffffffffffff168173ffffffffffffffffffffffffffffffffffffffff161415610cbb57600080fd5b6000600260008373ffffffffffffffffffffffffffffffffffffffff1673ffffffffffffffffffffffffffffffffffffffff16815260200190815260200160002060006101000a81548160ff0219169083151502179055506000600160008373ffffffffffffffffffffffffffffffffffffffff1673ffffffffffffffffffffffffffffffffffffffff16815260200190815260200160002060006101000a81548160ff02191690831515021790555050565b610d766121f6565b600560008481526020019081526020016000206040518060c00160405290816000820160009054906101000a900473ffffffffffffffffffffffffffffffffffffffff1673ffffffffffffffffffffffffffffffffffffffff1673ffffffffffffffffffffffffffffffffffffffff168152602001600182015481526020016002820154815260200160038201548152602001600482015481526020016006820154815250509050610e26612248565b6005600085815260200190815260200160002060050160008481526020019081526020016000206040518060a00160405290816000820160009054906101000a900473ffffffffffffffffffffffffffffffffffffffff1673ffffffffffffffffffffffffffffffffffffffff1673ffffffffffffffffffffffffffffffffffffffff1681526020016001820154815260200160028201548152602001600382015481526020016004820154815250509050806000015173ffffffffffffffffffffffffffffffffffffffff163373ffffffffffffffffffffffffffffffffffffffff1614610f4a576040517f08c379a0000000000000000000000000000000000000000000000000000000008152600401610f4190612cf1565b60405180910390fd5b7f4f70656e00000000000000000000000000000000000000000000000000000000826060015114610fb0576040517f08c379a0000000000000000000000000000000000000000000000000000000008152600401610fa790612c31565b60405180910390fd5b7f4269640000000000000000000000000000000000000000000000000000000000826080015114611016576040517f08c379a000000000000000000000000000000000000000000000000000000000815260040161100d90612c71565b60405180910390fd5b600460009054906101000a900473ffffffffffffffffffffffffffffffffffffffff1673ffffffffffffffffffffffffffffffffffffffff166323b872dd30836000015184602001516040518463ffffffff1660e01b815260040161107d93929190612a03565b600060405180830381600087803b15801561109757600080fd5b505af11580156110ab573d6000803e3d6000fd5b505050507f43616e63656c6c65640000000000000000000000000000000000000000000000600560008681526020019081526020016000206005016000858152602001908152602001600020600301819055507f0ad2d2199d845a32488abc3995b0a8d14adec51279a740f1663a7dee204ad3948460405161112d9190612d78565b60405180910390a150505050565b606080600560008481526020019081526020016000206006015460405190808252806020026020018201604052801561118e57816020015b61117b612293565b8152602001906001900390816111735790505b50905060008090505b6005600085815260200190815260200160002060060154811015611289576005600085815260200190815260200160002060050160008281526020019081526020016000206040518060a00160405290816000820160009054906101000a900473ffffffffffffffffffffffffffffffffffffffff1673ffffffffffffffffffffffffffffffffffffffff1673ffffffffffffffffffffffffffffffffffffffff16815260200160018201548152602001600282015481526020016003820154815260200160048201548152505082828151811061127157fe5b60200260200101819052508080600101915050611197565b5080915050919050565b6000806000806000806000806112a76121f6565b600560008c81526020019081526020016000206040518060c00160405290816000820160009054906101000a900473ffffffffffffffffffffffffffffffffffffffff1673ffffffffffffffffffffffffffffffffffffffff1673ffffffffffffffffffffffffffffffffffffffff168152602001600182015481526020016002820154815260200160038201548152602001600482015481526020016006820154815250509050611357612248565b600560008d815260200190815260200160002060050160008c81526020019081526020016000206040518060a00160405290816000820160009054906101000a900473ffffffffffffffffffffffffffffffffffffffff1673ffffffffffffffffffffffffffffffffffffffff1673ffffffffffffffffffffffffffffffffffffffff1681526020016001820154815260200160028201548152602001600382015481526020016004820154815250509050816000015182602001518360400151846060015184600001518560200151866040015187606001519950995099509950995099509950995050509295985092959890939650565b61145861157f565b611497576040517f08c379a000000000000000000000000000000000000000000000000000000000815260040161148e90612cd1565b60405180910390fd5b600073ffffffffffffffffffffffffffffffffffffffff166000809054906101000a900473ffffffffffffffffffffffffffffffffffffffff1673ffffffffffffffffffffffffffffffffffffffff167f8be0079c531659141344cd1fd0a4f28419497f9722a3daafe3b4186f6b6457e060405160405180910390a360008060006101000a81548173ffffffffffffffffffffffffffffffffffffffff021916908373ffffffffffffffffffffffffffffffffffffffff160217905550565b60008060009054906101000a900473ffffffffffffffffffffffffffffffffffffffff16905090565b60008060009054906101000a900473ffffffffffffffffffffffffffffffffffffffff1673ffffffffffffffffffffffffffffffffffffffff166115c16120c0565b73ffffffffffffffffffffffffffffffffffffffff1614905090565b600460009054906101000a900473ffffffffffffffffffffffffffffffffffffffff1673ffffffffffffffffffffffffffffffffffffffff166323b872dd3330866040518463ffffffff1660e01b815260040161163c93929190612995565b600060405180830381600087803b15801561165657600080fd5b505af115801561166a573d6000803e3d6000fd5b505050506040518060c001604052803373ffffffffffffffffffffffffffffffffffffffff1681526020018481526020018381526020017f4f70656e000000000000000000000000000000000000000000000000000000008152602001828152602001600081525060056000600754815260200190815260200160002060008201518160000160006101000a81548173ffffffffffffffffffffffffffffffffffffffff021916908373ffffffffffffffffffffffffffffffffffffffff1602179055506020820151816001015560408201518160020155606082015181600301556080820151816004015560a0820151816006015590505060016007600082825401925050819055507f4d38ed2c5ea671a5ccddc331f0ebebd94a60aaf6e572543497485d4d148f9edf6001600754036040516117a89190612d9f565b60405180910390a1505050565b6117bd6121f6565b600560008481526020019081526020016000206040518060c00160405290816000820160009054906101000a900473ffffffffffffffffffffffffffffffffffffffff1673ffffffffffffffffffffffffffffffffffffffff1673ffffffffffffffffffffffffffffffffffffffff168152602001600182015481526020016002820154815260200160038201548152602001600482015481526020016006820154815250509050806000015173ffffffffffffffffffffffffffffffffffffffff163373ffffffffffffffffffffffffffffffffffffffff16146118d7576040517f08c379a00000000000000000000000000000000000000000000000000000000081526004016118ce90612cb1565b60405180910390fd5b7f4f70656e0000000000000000000000000000000000000000000000000000000081606001511461193d576040517f08c379a000000000000000000000000000000000000000000000000000000000815260040161193490612c31565b60405180910390fd5b7f42696400000000000000000000000000000000000000000000000000000000008160800151146119a3576040517f08c379a000000000000000000000000000000000000000000000000000000000815260040161199a90612d31565b60405180910390fd5b6119ab612248565b6005600085815260200190815260200160002060050160008481526020019081526020016000206040518060a00160405290816000820160009054906101000a900473ffffffffffffffffffffffffffffffffffffffff1673ffffffffffffffffffffffffffffffffffffffff1673ffffffffffffffffffffffffffffffffffffffff1681526020016001820154815260200160028201548152602001600382015481526020016004820154815250509050600360009054906101000a900473ffffffffffffffffffffffffffffffffffffffff1673ffffffffffffffffffffffffffffffffffffffff166323b872dd33836000015184604001516040518463ffffffff1660e01b8152600401611ac493929190612995565b602060405180830381600087803b158015611ade57600080fd5b505af1158015611af2573d6000803e3d6000fd5b505050506040513d601f19601f82011682018060405250611b169190810190612397565b50600460009054906101000a900473ffffffffffffffffffffffffffffffffffffffff1673ffffffffffffffffffffffffffffffffffffffff166323b872dd30836000015184602001516040518463ffffffff1660e01b8152600401611b7e93929190612a03565b600060405180830381600087803b158015611b9857600080fd5b505af1158015611bac573d6000803e3d6000fd5b505050507f457865637574656400000000000000000000000000000000000000000000000060056000868152602001908152602001600020600301819055507f4578656375746564000000000000000000000000000000000000000000000000600560008681526020019081526020016000206005016000858152602001908152602001600020600301819055507f4d38ed2c5ea671a5ccddc331f0ebebd94a60aaf6e572543497485d4d148f9edf84604051611c699190612d51565b60405180910390a17f0ad2d2199d845a32488abc3995b0a8d14adec51279a740f1663a7dee204ad39483604051611ca09190612d51565b60405180910390a150505050565b60026020528060005260406000206000915054906101000a900460ff1681565b611cd661157f565b611d15576040517f08c379a0000000000000000000000000000000000000000000000000000000008152600401611d0c90612cd1565b60405180910390fd5b600073ffffffffffffffffffffffffffffffffffffffff168173ffffffffffffffffffffffffffffffffffffffff161415611d4f57600080fd5b6001600260008373ffffffffffffffffffffffffffffffffffffffff1673ffffffffffffffffffffffffffffffffffffffff16815260200190815260200160002060006101000a81548160ff02191690831515021790555060018060008373ffffffffffffffffffffffffffffffffffffffff1673ffffffffffffffffffffffffffffffffffffffff16815260200190815260200160002060006101000a81548160ff02191690831515021790555050565b611e096121f6565b6005600060016007540381526020019081526020016000206040518060c00160405290816000820160009054906101000a900473ffffffffffffffffffffffffffffffffffffffff1673ffffffffffffffffffffffffffffffffffffffff1673ffffffffffffffffffffffffffffffffffffffff1681526020016001820154815260200160028201548152602001600382015481526020016004820154815260200160068201548152505090507f4269640000000000000000000000000000000000000000000000000000000000816080015114611f1c576040517f08c379a0000000000000000000000000000000000000000000000000000000008152600401611f1390612c91565b60405180910390fd5b6040518060a001604052803373ffffffffffffffffffffffffffffffffffffffff1681526020018581526020018481526020017f4f70656e0000000000000000000000000000000000000000000000000000000081526020018381525060056000600754815260200190815260200160002060050160008360a00151815260200190815260200160002060008201518160000160006101000a81548173ffffffffffffffffffffffffffffffffffffffff021916908373ffffffffffffffffffffffffffffffffffffffff1602179055506020820151816001015560408201518160020155606082015181600301556080820151816004015590505060018160a00181815101915081815250507f0ad2d2199d845a32488abc3995b0a8d14adec51279a740f1663a7dee204ad39460018260a001510360405161205f9190612d9f565b60405180910390a150505050565b61207561157f565b6120b4576040517f08c379a00000000000000000000000000000000000000000000000000000000081526004016120ab90612cd1565b60405180910390fd5b6120bd816120c8565b50565b600033905090565b600073ffffffffffffffffffffffffffffffffffffffff168173ffffffffffffffffffffffffffffffffffffffff161415612138576040517f08c379a000000000000000000000000000000000000000000000000000000000815260040161212f90612c11565b60405180910390fd5b8073ffffffffffffffffffffffffffffffffffffffff166000809054906101000a900473ffffffffffffffffffffffffffffffffffffffff1673ffffffffffffffffffffffffffffffffffffffff167f8be0079c531659141344cd1fd0a4f28419497f9722a3daafe3b4186f6b6457e060405160405180910390a3806000806101000a81548173ffffffffffffffffffffffffffffffffffffffff021916908373ffffffffffffffffffffffffffffffffffffffff16021790555050565b6040518060c00160405280600073ffffffffffffffffffffffffffffffffffffffff16815260200160008152602001600081526020016000801916815260200160008019168152602001600081525090565b6040518060a00160405280600073ffffffffffffffffffffffffffffffffffffffff168152602001600081526020016000815260200160008019168152602001600080191681525090565b6040518060a00160405280600073ffffffffffffffffffffffffffffffffffffffff168152602001600081526020016000815260200160008019168152602001600080191681525090565b6000813590506122ed81612e98565b92915050565b60008151905061230281612eaf565b92915050565b60008135905061231781612ec6565b92915050565b60008135905061232c81612edd565b92915050565b60006020828403121561234457600080fd5b6000612352848285016122de565b91505092915050565b6000806040838503121561236e57600080fd5b600061237c858286016122de565b925050602061238d858286016122de565b9150509250929050565b6000602082840312156123a957600080fd5b60006123b7848285016122f3565b91505092915050565b6000602082840312156123d257600080fd5b60006123e08482850161231d565b91505092915050565b600080604083850312156123fc57600080fd5b600061240a8582860161231d565b925050602061241b8582860161231d565b9150509250929050565b60008060006060848603121561243a57600080fd5b60006124488682870161231d565b93505060206124598682870161231d565b925050604061246a86828701612308565b9150509250925092565b600061248083836128f4565b60a08301905092915050565b61249581612e62565b82525050565b6124a481612e10565b82525050565b6124b381612e10565b82525050565b60006124c482612dd6565b6124ce8185612dee565b93506124d983612dc6565b8060005b8381101561250a5781516124f18882612474565b97506124fc83612de1565b9250506001810190506124dd565b5085935050505092915050565b61252081612e22565b82525050565b61252f81612e2e565b82525050565b61253e81612e2e565b82525050565b7f4578656375746564000000000000000000000000000000000000000000000000815250565b6000612577602683612dff565b91507f4f776e61626c653a206e6577206f776e657220697320746865207a65726f206160008301527f64647265737300000000000000000000000000000000000000000000000000006020830152604082019050919050565b60006125dd601283612dff565b91507f5472616465206973206e6f74204f70656e2e00000000000000000000000000006000830152602082019050919050565b600061261d602683612dff565b91507f54726164652063616e2062652063616e63656c6c6564206f6e6c79206279207060008301527f6f737465722e00000000000000000000000000000000000000000000000000006020830152604082019050919050565b6000612683601683612dff565b91507f5472616465206973206e6f742062696420747970652e000000000000000000006000830152602082019050919050565b7f43616e63656c6c65640000000000000000000000000000000000000000000000815250565b60006126e9602583612dff565b91507f5472616465206d75737420626520626964207479706520746f206f70656e206160008301527f206269642e0000000000000000000000000000000000000000000000000000006020830152604082019050919050565b600061274f602383612dff565b91507f4269642063616e206265206163636570746564206f6e6c7920627920706f737460008301527f65722e00000000000000000000000000000000000000000000000000000000006020830152604082019050919050565b7f4f70656e00000000000000000000000000000000000000000000000000000000815250565b60006127db602083612dff565b91507f4f776e61626c653a2063616c6c6572206973206e6f7420746865206f776e65726000830152602082019050919050565b600061281b602483612dff565b91507f4269642063616e2062652063616e63656c6c6564206f6e6c7920627920706f7360008301527f7465722e000000000000000000000000000000000000000000000000000000006020830152604082019050919050565b6000612881601c83612dff565b91507f5472616465206973206e6f7420616e206f666665722074797065202e000000006000830152602082019050919050565b60006128c1601a83612dff565b91507f5472616465206973206e6f7420616e206269642074797065202e0000000000006000830152602082019050919050565b60a08201600082015161290a600085018261249b565b50602082015161291d602085018261295c565b506040820151612930604085018261295c565b5060608201516129436060850182612526565b5060808201516129566080850182612526565b50505050565b61296581612e58565b82525050565b61297481612e58565b82525050565b600060208201905061298f60008301846124aa565b92915050565b60006060820190506129aa600083018661248c565b6129b760208301856124aa565b6129c4604083018461296b565b949350505050565b60006060820190506129e160008301866124aa565b6129ee602083018561248c565b6129fb604083018461296b565b949350505050565b6000606082019050612a1860008301866124aa565b612a2560208301856124aa565b612a32604083018461296b565b949350505050565b600061010082019050612a50600083018b6124aa565b612a5d602083018a61296b565b612a6a604083018961296b565b612a776060830188612535565b612a8460808301876124aa565b612a9160a083018661296b565b612a9e60c083018561296b565b612aab60e0830184612535565b9998505050505050505050565b600060a082019050612acd60008301886124aa565b612ada602083018761296b565b612ae7604083018661296b565b612af46060830185612535565b612b016080830184612535565b9695505050505050565b600060c082019050612b2060008301896124aa565b612b2d602083018861296b565b612b3a604083018761296b565b612b476060830186612535565b612b546080830185612535565b81810360a0830152612b6681846124b9565b9050979650505050505050565b600060c082019050612b8860008301896124aa565b612b95602083018861296b565b612ba2604083018761296b565b612baf6060830186612535565b612bbc6080830185612535565b612bc960a083018461296b565b979650505050505050565b60006020820190508181036000830152612bee81846124b9565b905092915050565b6000602082019050612c0b6000830184612517565b92915050565b60006020820190508181036000830152612c2a8161256a565b9050919050565b60006020820190508181036000830152612c4a816125d0565b9050919050565b60006020820190508181036000830152612c6a81612610565b9050919050565b60006020820190508181036000830152612c8a81612676565b9050919050565b60006020820190508181036000830152612caa816126dc565b9050919050565b60006020820190508181036000830152612cca81612742565b9050919050565b60006020820190508181036000830152612cea816127ce565b9050919050565b60006020820190508181036000830152612d0a8161280e565b9050919050565b60006020820190508181036000830152612d2a81612874565b9050919050565b60006020820190508181036000830152612d4a816128b4565b9050919050565b6000604082019050612d66600083018461296b565b612d7260208301612544565b92915050565b6000604082019050612d8d600083018461296b565b612d99602083016126b6565b92915050565b6000604082019050612db4600083018461296b565b612dc0602083016127a8565b92915050565b6000819050602082019050919050565b600081519050919050565b6000602082019050919050565b600082825260208201905092915050565b600082825260208201905092915050565b6000612e1b82612e38565b9050919050565b60008115159050919050565b6000819050919050565b600073ffffffffffffffffffffffffffffffffffffffff82169050919050565b6000819050919050565b6000612e6d82612e74565b9050919050565b6000612e7f82612e86565b9050919050565b6000612e9182612e38565b9050919050565b612ea181612e10565b8114612eac57600080fd5b50565b612eb881612e22565b8114612ec357600080fd5b50565b612ecf81612e2e565b8114612eda57600080fd5b50565b612ee681612e58565b8114612ef157600080fd5b5056fea365627a7a72315820bce169669911e968cbe996ab837477608cf10e361b744fe8be72477724c170006c6578706572696d656e74616cf564736f6c63430005100040",
  "source": "pragma solidity ^0.5.0;\npragma experimental ABIEncoderV2;\nimport \"@openzeppelin/contracts/ownership/Ownable.sol\";\nimport \"@openzeppelin/contracts/token/ERC20/IERC20.sol\";\nimport \"@openzeppelin/contracts/token/ERC721/IERC721.sol\";\nimport \"./AmanaAuthorizable.sol\";\n\n\n\n/**\n * @title AmanaMarketplace\n * @notice Implements the classifieds board market. The market will be governed\n * by an ERC20 token as currency, and an ERC721 token that represents the\n * ownership of the items being traded. Only ads for selling items are\n * implemented. The item tokenization is responsibility of the ERC721 contract\n * which should encode any item details.\n */\ncontract AmanaMarketplace is AmanaAuthorizable {\n    event TradeStatusChange(uint256 ad, bytes32 status);\n    event BidStatusChange(uint256 ad, bytes32 status);\n\n    IERC20 currencyToken;\n    IERC721 itemToken;\n\n    struct Trade {\n        address poster;\n        uint256 item;\n        uint256 price;\n        bytes32 status; // Open, Executed, Cancelled\n        bytes32 tradeType; // Offer, Bid\n        mapping(uint256 => Bid) bids;\n        uint256 bidCounter;\n    }\n\n    struct Bid {\n        address bidder;\n        uint256 item;\n        uint256 price;\n        bytes32 status; // Open, Executed, Cancelled\n        bytes32 visibility; // Open, OnlyOwner, \n    }\n\n    mapping(uint256 => Trade) public trades;\n    mapping(uint256 => Bid) public bids;\n\n    uint256 tradeCounter;\n    uint256 bidCounter;\n\n    constructor (address _currencyTokenAddress, address _itemTokenAddress)\n        public\n    {\n        currencyToken = IERC20(_currencyTokenAddress);\n        itemToken = IERC721(_itemTokenAddress);\n        tradeCounter = 0;\n        bidCounter = 0;\n    }\n\n    function getAllTradeBids(uint256 _trade) public view returns (Bid[] memory){\n    \n\n        Bid[] memory bidList = new Bid[](trades[_trade].bidCounter);\n        for (uint i = 0; i < trades[_trade].bidCounter; i++) {\n            bidList[i] = trades[_trade].bids[i];\n        }\n        return bidList;\n    }\n\n    /**\n     * @dev Returns the details for a trade.\n     * @param _trade The id for the trade.\n     */\n    function getTrade(uint256 _trade)\n        public\n        view\n        returns(address, uint256, uint256, bytes32, bytes32, Bid[] memory)\n    {\n        Trade memory trade = trades[_trade];\n        Bid[] memory bidList = getAllTradeBids(_trade);\n        return (trade.poster, trade.item, trade.price, trade.status, trade.tradeType, bidList);\n    }\n\n    /**\n     * @dev Returns the details for a bid.\n     * @param _trade The id for the trade.\n     * @param _bid The id for the bid.\n     */\n    function getBid(uint256 _trade, uint256 _bid)\n        public\n        view\n        returns(address, uint256, uint256, bytes32, address, uint256, uint256, bytes32)\n    {\n        Trade memory trade = trades[_trade];\n        Bid memory bid = trades[_trade].bids[_bid];\n        return (trade.poster, trade.item, trade.price, trade.status, bid.bidder, bid.item, bid.price, bid.status);\n    }\n\n    /**\n     * @dev Opens a new bid. Puts _item in escrow.\n     * @param _item The id for the item to bid on.\n     * @param _price The amount of currency for which to bid the item.\n     * @param _visibility The visibility for which to bid the item.\n     */\n    function openBid(uint256 _item, uint256 _price, bytes32 _visibility)\n        public\n    {\n        Trade memory trade = trades[tradeCounter-1];\n        require(trade.tradeType == \"Bid\", \"Trade must be bid type to open a bid.\");\n        trades[tradeCounter].bids[trade.bidCounter] = Bid({\n            bidder: msg.sender,\n            item: _item,\n            price: _price,\n            status: \"Open\",\n            visibility : _visibility\n        });\n        trade.bidCounter += 1;\n        emit BidStatusChange(trade.bidCounter - 1, \"Open\");\n    }\n\n\n    /**\n     * @dev Opens a new trade. Puts _item in escrow.\n     * @param _item The id for the item to trade.\n     * @param _price The amount of currency for which to trade the item.\n     */\n    function openTrade(uint256 _item, uint256 _price, bytes32 _tradeType)\n        public\n    {\n        itemToken.transferFrom(msg.sender, address(this), _item);\n        trades[tradeCounter] = Trade({\n            poster: msg.sender,\n            item: _item,\n            price: _price,\n            status: \"Open\",\n            tradeType: _tradeType,\n            bidCounter: 0\n        });\n        tradeCounter += 1;\n        emit TradeStatusChange(tradeCounter - 1, \"Open\");\n    }\n\n    /**\n     * @dev Executes a trade. Must have approved this contract to transfer the\n     * amount of currency specified to the poster. Transfers ownership of the\n     * item to the filler.\n     * @param _trade The id of an existing trade\n     */\n    function executeTrade(uint256 _trade)\n        public\n    {\n        Trade memory trade = trades[_trade];\n        require(trade.status == \"Open\", \"Trade is not Open.\");\n        require(trade.tradeType == \"Offer\", \"Trade is not an offer type .\");\n        currencyToken.transferFrom(msg.sender, trade.poster, trade.price);\n        itemToken.transferFrom(address(this), msg.sender, trade.item);\n        trades[_trade].status = \"Executed\";\n        emit TradeStatusChange(_trade, \"Executed\");\n    }\n\n    /**\n     * @dev Executes a trade. Must have approved this contract to transfer the\n     * amount of currency specified to the poster. Transfers ownership of the\n     * item to the filler.\n     * @param _trade The id of an existing trade\n     */\n    function executeBid(uint256 _trade, uint256 _bid)\n        public\n    {\n        Trade memory trade = trades[_trade];\n        require(\n            msg.sender == trade.poster,\n            \"Bid can be accepted only by poster.\"\n        );\n        require(trade.status == \"Open\", \"Trade is not Open.\");\n        require(trade.tradeType == \"Bid\", \"Trade is not an bid type .\");\n        Bid memory bid = trades[_trade].bids[_bid];\n        currencyToken.transferFrom(msg.sender, bid.bidder, bid.price);\n        itemToken.transferFrom(address(this), bid.bidder, bid.item);\n        trades[_trade].status = \"Executed\";\n        trades[_trade].bids[_bid].status = \"Executed\";\n        emit TradeStatusChange(_trade, \"Executed\");\n        emit BidStatusChange(_bid, \"Executed\");\n    }\n\n    /**\n     * @dev Cancels a trade by the poster.\n     * @param _trade The trade to be cancelled.\n     */\n    function cancelTrade(uint256 _trade)\n        public\n    {\n        Trade memory trade = trades[_trade];\n        require(\n            msg.sender == trade.poster,\n            \"Trade can be cancelled only by poster.\"\n        );\n        require(trade.status == \"Open\", \"Trade is not Open.\");\n        itemToken.transferFrom(address(this), trade.poster, trade.item);\n        trades[_trade].status = \"Cancelled\";\n        emit TradeStatusChange(_trade, \"Cancelled\");\n    }\n\n    /**\n     * @dev Cancels a trade by the poster.\n     * @param _trade The trade that contain the bid to be cancelled.\n     * @param _bid The bid to be cancelled.\n     */\n    function cancelBid(uint256 _trade, uint256 _bid)\n        public\n    {\n        Trade memory trade = trades[_trade];\n        Bid memory bid = trades[_trade].bids[_bid];\n        require(\n            msg.sender == bid.bidder,\n            \"Bid can be cancelled only by poster.\"\n        );\n        require(trade.status == \"Open\", \"Trade is not Open.\");\n        require(trade.tradeType == \"Bid\", \"Trade is not bid type.\");\n        itemToken.transferFrom(address(this), bid.bidder, bid.item);\n        trades[_trade].bids[_bid].status = \"Cancelled\";\n        emit BidStatusChange(_trade, \"Cancelled\");\n    }\n\n\n    function lateInitializee (address _currencyTokenAddress, address _itemTokenAddress)\n        public\n    {\n        currencyToken = IERC20(_currencyTokenAddress);\n        itemToken = IERC721(_itemTokenAddress);\n        tradeCounter = 0;\n    }\n}",
  "sourcePath": "/Users/bachirdiop/Desktop/Coding4Integrity/hackathon-blockchain/contracts/AmanaMarketplace.sol",
  "compiler": {
    "name": "solc",
    "version": "0.5.16+commit.9c3226ce.Emscripten.clang"
  },
  "schemaVersion": "3.4.3",
  "updatedAt": "2021-10-31T18:27:24.333Z",
  "devdoc": {
    "methods": {
      "cancelBid(uint256,uint256)": {
        "details": "Cancels a trade by the poster.",
        "params": {
          "_bid": "The bid to be cancelled.",
          "_trade": "The trade that contain the bid to be cancelled."
        }
      },
      "cancelTrade(uint256)": {
        "details": "Cancels a trade by the poster.",
        "params": {
          "_trade": "The trade to be cancelled."
        }
      },
      "executeBid(uint256,uint256)": {
        "details": "Executes a trade. Must have approved this contract to transfer the amount of currency specified to the poster. Transfers ownership of the item to the filler.",
        "params": {
          "_trade": "The id of an existing trade"
        }
      },
      "executeTrade(uint256)": {
        "details": "Executes a trade. Must have approved this contract to transfer the amount of currency specified to the poster. Transfers ownership of the item to the filler.",
        "params": {
          "_trade": "The id of an existing trade"
        }
      },
      "getBid(uint256,uint256)": {
        "details": "Returns the details for a bid.",
        "params": {
          "_bid": "The id for the bid.",
          "_trade": "The id for the trade."
        }
      },
      "getTrade(uint256)": {
        "details": "Returns the details for a trade.",
        "params": {
          "_trade": "The id for the trade."
        }
      },
      "isOwner()": {
        "details": "Returns true if the caller is the current owner."
      },
      "openBid(uint256,uint256,bytes32)": {
        "details": "Opens a new bid. Puts _item in escrow.",
        "params": {
          "_item": "The id for the item to bid on.",
          "_price": "The amount of currency for which to bid the item.",
          "_visibility": "The visibility for which to bid the item."
        }
      },
      "openTrade(uint256,uint256,bytes32)": {
        "details": "Opens a new trade. Puts _item in escrow.",
        "params": {
          "_item": "The id for the item to trade.",
          "_price": "The amount of currency for which to trade the item."
        }
      },
      "owner()": {
        "details": "Returns the address of the current owner."
      },
      "proxyOwner()": {
        "details": "Tells the address of the owner",
        "return": "the address of the owner"
      },
      "renounceOwnership()": {
        "details": "Leaves the contract without owner. It will not be possible to call `onlyOwner` functions anymore. Can only be called by the current owner.     * NOTE: Renouncing ownership will leave the contract without an owner, thereby removing any functionality that is only available to the owner."
      },
      "transferOwnership(address)": {
        "details": "Transfers ownership of the contract to a new account (`newOwner`). Can only be called by the current owner."
      }
    },
    "title": "AmanaMarketplace"
  },
  "userdoc": {
    "methods": {},
    "notice": "Implements the classifieds board market. The market will be governed by an ERC20 token as currency, and an ERC721 token that represents the ownership of the items being traded. Only ads for selling items are implemented. The item tokenization is responsibility of the ERC721 contract which should encode any item details."
  }
}