{
  "contractName": "AmanaMarketplace",
  "abi": [
    {
      "inputs": [
        {
          "internalType": "address",
          "name": "_currencyTokenAddress",
          "type": "address"
        },
        {
          "internalType": "address",
          "name": "_itemTokenAddress",
          "type": "address"
        }
      ],
      "payable": false,
      "stateMutability": "nonpayable",
      "type": "constructor"
    },
    {
      "anonymous": false,
      "inputs": [
        {
          "indexed": false,
          "internalType": "uint256",
          "name": "ad",
          "type": "uint256"
        },
        {
          "indexed": false,
          "internalType": "bytes32",
          "name": "status",
          "type": "bytes32"
        }
      ],
      "name": "BidStatusChange",
      "type": "event"
    },
    {
      "anonymous": false,
      "inputs": [
        {
          "indexed": true,
          "internalType": "address",
          "name": "previousOwner",
          "type": "address"
        },
        {
          "indexed": true,
          "internalType": "address",
          "name": "newOwner",
          "type": "address"
        }
      ],
      "name": "OwnershipTransferred",
      "type": "event"
    },
    {
      "anonymous": false,
      "inputs": [
        {
          "indexed": false,
          "internalType": "uint256",
          "name": "ad",
          "type": "uint256"
        },
        {
          "indexed": false,
          "internalType": "bytes32",
          "name": "status",
          "type": "bytes32"
        }
      ],
      "name": "TradeStatusChange",
      "type": "event"
    },
    {
      "constant": false,
      "inputs": [
        {
          "internalType": "address",
          "name": "_toAdd",
          "type": "address"
        }
      ],
      "name": "addAuthorized",
      "outputs": [],
      "payable": false,
      "stateMutability": "nonpayable",
      "type": "function"
    },
    {
      "constant": true,
      "inputs": [
        {
          "internalType": "address",
          "name": "",
          "type": "address"
        }
      ],
      "name": "authorized",
      "outputs": [
        {
          "internalType": "bool",
          "name": "",
          "type": "bool"
        }
      ],
      "payable": false,
      "stateMutability": "view",
      "type": "function"
    },
    {
      "constant": true,
      "inputs": [
        {
          "internalType": "uint256",
          "name": "",
          "type": "uint256"
        }
      ],
      "name": "bids",
      "outputs": [
        {
          "internalType": "address",
          "name": "bidder",
          "type": "address"
        },
        {
          "internalType": "uint256",
          "name": "item",
          "type": "uint256"
        },
        {
          "internalType": "uint256",
          "name": "price",
          "type": "uint256"
        },
        {
          "internalType": "bytes32",
          "name": "status",
          "type": "bytes32"
        },
        {
          "internalType": "bytes32",
          "name": "visibility",
          "type": "bytes32"
        }
      ],
      "payable": false,
      "stateMutability": "view",
      "type": "function"
    },
    {
      "constant": true,
      "inputs": [
        {
          "internalType": "uint256",
          "name": "",
          "type": "uint256"
        }
      ],
      "name": "history",
      "outputs": [
        {
          "internalType": "address",
          "name": "executer",
          "type": "address"
        },
        {
          "internalType": "address",
          "name": "poster",
          "type": "address"
        },
        {
          "internalType": "uint256",
          "name": "item",
          "type": "uint256"
        },
        {
          "internalType": "uint256",
          "name": "price",
          "type": "uint256"
        },
        {
          "internalType": "bytes32",
          "name": "status",
          "type": "bytes32"
        },
        {
          "internalType": "bytes32",
          "name": "tradeType",
          "type": "bytes32"
        },
        {
          "internalType": "uint256",
          "name": "bidCounter",
          "type": "uint256"
        },
        {
          "internalType": "uint256",
          "name": "openTime",
          "type": "uint256"
        },
        {
          "internalType": "uint256",
          "name": "closeTime",
          "type": "uint256"
        }
      ],
      "payable": false,
      "stateMutability": "view",
      "type": "function"
    },
    {
      "constant": true,
      "inputs": [],
      "name": "isOwner",
      "outputs": [
        {
          "internalType": "bool",
          "name": "",
          "type": "bool"
        }
      ],
      "payable": false,
      "stateMutability": "view",
      "type": "function"
    },
    {
      "constant": true,
      "inputs": [],
      "name": "owner",
      "outputs": [
        {
          "internalType": "address",
          "name": "",
          "type": "address"
        }
      ],
      "payable": false,
      "stateMutability": "view",
      "type": "function"
    },
    {
      "constant": true,
      "inputs": [],
      "name": "proxyOwner",
      "outputs": [
        {
          "internalType": "address",
          "name": "owner",
          "type": "address"
        }
      ],
      "payable": false,
      "stateMutability": "view",
      "type": "function"
    },
    {
      "constant": false,
      "inputs": [
        {
          "internalType": "address",
          "name": "_toRemove",
          "type": "address"
        }
      ],
      "name": "removeAuthorized",
      "outputs": [],
      "payable": false,
      "stateMutability": "nonpayable",
      "type": "function"
    },
    {
      "constant": false,
      "inputs": [],
      "name": "renounceOwnership",
      "outputs": [],
      "payable": false,
      "stateMutability": "nonpayable",
      "type": "function"
    },
    {
      "constant": true,
      "inputs": [
        {
          "internalType": "uint256",
          "name": "",
          "type": "uint256"
        }
      ],
      "name": "trades",
      "outputs": [
        {
          "internalType": "address",
          "name": "executer",
          "type": "address"
        },
        {
          "internalType": "address",
          "name": "poster",
          "type": "address"
        },
        {
          "internalType": "uint256",
          "name": "item",
          "type": "uint256"
        },
        {
          "internalType": "uint256",
          "name": "price",
          "type": "uint256"
        },
        {
          "internalType": "bytes32",
          "name": "status",
          "type": "bytes32"
        },
        {
          "internalType": "bytes32",
          "name": "tradeType",
          "type": "bytes32"
        },
        {
          "internalType": "uint256",
          "name": "bidCounter",
          "type": "uint256"
        },
        {
          "internalType": "uint256",
          "name": "openTime",
          "type": "uint256"
        },
        {
          "internalType": "uint256",
          "name": "closeTime",
          "type": "uint256"
        }
      ],
      "payable": false,
      "stateMutability": "view",
      "type": "function"
    },
    {
      "constant": false,
      "inputs": [
        {
          "internalType": "address",
          "name": "newOwner",
          "type": "address"
        }
      ],
      "name": "transferOwnership",
      "outputs": [],
      "payable": false,
      "stateMutability": "nonpayable",
      "type": "function"
    },
    {
      "constant": true,
      "inputs": [],
      "name": "getHistoryCount",
      "outputs": [
        {
          "internalType": "uint256",
          "name": "count",
          "type": "uint256"
        }
      ],
      "payable": false,
      "stateMutability": "view",
      "type": "function"
    },
    {
      "constant": true,
      "inputs": [
        {
          "internalType": "uint256",
          "name": "_id",
          "type": "uint256"
        }
      ],
      "name": "getHistory",
      "outputs": [
        {
          "internalType": "address",
          "name": "",
          "type": "address"
        },
        {
          "internalType": "address",
          "name": "",
          "type": "address"
        },
        {
          "internalType": "uint256",
          "name": "",
          "type": "uint256"
        },
        {
          "internalType": "uint256",
          "name": "",
          "type": "uint256"
        },
        {
          "internalType": "bytes32",
          "name": "",
          "type": "bytes32"
        },
        {
          "internalType": "uint256",
          "name": "",
          "type": "uint256"
        },
        {
          "internalType": "uint256",
          "name": "",
          "type": "uint256"
        }
      ],
      "payable": false,
      "stateMutability": "view",
      "type": "function"
    },
    {
      "constant": true,
      "inputs": [],
      "name": "getTradeCounter",
      "outputs": [
        {
          "internalType": "uint256",
          "name": "",
          "type": "uint256"
        }
      ],
      "payable": false,
      "stateMutability": "view",
      "type": "function"
    },
    {
      "constant": true,
      "inputs": [
        {
          "internalType": "uint256",
          "name": "_trade",
          "type": "uint256"
        }
      ],
      "name": "getAllTradeBids",
      "outputs": [
        {
          "components": [
            {
              "internalType": "address",
              "name": "bidder",
              "type": "address"
            },
            {
              "internalType": "uint256",
              "name": "item",
              "type": "uint256"
            },
            {
              "internalType": "uint256",
              "name": "price",
              "type": "uint256"
            },
            {
              "internalType": "bytes32",
              "name": "status",
              "type": "bytes32"
            },
            {
              "internalType": "bytes32",
              "name": "visibility",
              "type": "bytes32"
            }
          ],
          "internalType": "struct AmanaMarketplace.Bid[]",
          "name": "",
          "type": "tuple[]"
        }
      ],
      "payable": false,
      "stateMutability": "view",
      "type": "function"
    },
    {
      "constant": true,
      "inputs": [
        {
          "internalType": "uint256",
          "name": "_trade",
          "type": "uint256"
        }
      ],
      "name": "getTrade",
      "outputs": [
        {
          "internalType": "address",
          "name": "",
          "type": "address"
        },
        {
          "internalType": "uint256",
          "name": "",
          "type": "uint256"
        },
        {
          "internalType": "uint256",
          "name": "",
          "type": "uint256"
        },
        {
          "internalType": "bytes32",
          "name": "",
          "type": "bytes32"
        },
        {
          "internalType": "bytes32",
          "name": "",
          "type": "bytes32"
        },
        {
          "components": [
            {
              "internalType": "address",
              "name": "bidder",
              "type": "address"
            },
            {
              "internalType": "uint256",
              "name": "item",
              "type": "uint256"
            },
            {
              "internalType": "uint256",
              "name": "price",
              "type": "uint256"
            },
            {
              "internalType": "bytes32",
              "name": "status",
              "type": "bytes32"
            },
            {
              "internalType": "bytes32",
              "name": "visibility",
              "type": "bytes32"
            }
          ],
          "internalType": "struct AmanaMarketplace.Bid[]",
          "name": "",
          "type": "tuple[]"
        }
      ],
      "payable": false,
      "stateMutability": "view",
      "type": "function"
    },
    {
      "constant": true,
      "inputs": [
        {
          "internalType": "uint256",
          "name": "_trade",
          "type": "uint256"
        },
        {
          "internalType": "uint256",
          "name": "_bid",
          "type": "uint256"
        }
      ],
      "name": "getBid",
      "outputs": [
        {
          "internalType": "address",
          "name": "",
          "type": "address"
        },
        {
          "internalType": "uint256",
          "name": "",
          "type": "uint256"
        },
        {
          "internalType": "uint256",
          "name": "",
          "type": "uint256"
        },
        {
          "internalType": "bytes32",
          "name": "",
          "type": "bytes32"
        },
        {
          "internalType": "address",
          "name": "",
          "type": "address"
        },
        {
          "internalType": "uint256",
          "name": "",
          "type": "uint256"
        },
        {
          "internalType": "uint256",
          "name": "",
          "type": "uint256"
        },
        {
          "internalType": "bytes32",
          "name": "",
          "type": "bytes32"
        }
      ],
      "payable": false,
      "stateMutability": "view",
      "type": "function"
    },
    {
      "constant": false,
      "inputs": [
        {
          "internalType": "uint256",
          "name": "_item",
          "type": "uint256"
        },
        {
          "internalType": "uint256",
          "name": "_price",
          "type": "uint256"
        },
        {
          "internalType": "bytes32",
          "name": "_visibility",
          "type": "bytes32"
        }
      ],
      "name": "openBid",
      "outputs": [],
      "payable": false,
      "stateMutability": "nonpayable",
      "type": "function"
    },
    {
      "constant": false,
      "inputs": [
        {
          "internalType": "uint256",
          "name": "_item",
          "type": "uint256"
        },
        {
          "internalType": "uint256",
          "name": "_price",
          "type": "uint256"
        },
        {
          "internalType": "bytes32",
          "name": "_tradeType",
          "type": "bytes32"
        }
      ],
      "name": "openTrade",
      "outputs": [],
      "payable": false,
      "stateMutability": "nonpayable",
      "type": "function"
    },
    {
      "constant": false,
      "inputs": [
        {
          "internalType": "uint256",
          "name": "_trade",
          "type": "uint256"
        }
      ],
      "name": "executeTrade",
      "outputs": [],
      "payable": false,
      "stateMutability": "nonpayable",
      "type": "function"
    },
    {
      "constant": false,
      "inputs": [
        {
          "internalType": "uint256",
          "name": "_trade",
          "type": "uint256"
        },
        {
          "internalType": "uint256",
          "name": "_bid",
          "type": "uint256"
        }
      ],
      "name": "executeBid",
      "outputs": [],
      "payable": false,
      "stateMutability": "nonpayable",
      "type": "function"
    },
    {
      "constant": false,
      "inputs": [
        {
          "internalType": "uint256",
          "name": "_trade",
          "type": "uint256"
        }
      ],
      "name": "cancelTrade",
      "outputs": [],
      "payable": false,
      "stateMutability": "nonpayable",
      "type": "function"
    },
    {
      "constant": false,
      "inputs": [
        {
          "internalType": "uint256",
          "name": "_trade",
          "type": "uint256"
        },
        {
          "internalType": "uint256",
          "name": "_bid",
          "type": "uint256"
        }
      ],
      "name": "cancelBid",
      "outputs": [],
      "payable": false,
      "stateMutability": "nonpayable",
      "type": "function"
    },
    {
      "constant": false,
      "inputs": [
        {
          "internalType": "address",
          "name": "_currencyTokenAddress",
          "type": "address"
        },
        {
          "internalType": "address",
          "name": "_itemTokenAddress",
          "type": "address"
        }
      ],
      "name": "lateInitializee",
      "outputs": [],
      "payable": false,
      "stateMutability": "nonpayable",
      "type": "function"
    }
  ],
  "bytecode": "0x60806040523480156200001157600080fd5b5060405162003d7a38038062003d7a8339818101604052620000379190810190620001a0565b6000620000496200018160201b60201c565b9050806000806101000a81548173ffffffffffffffffffffffffffffffffffffffff021916908373ffffffffffffffffffffffffffffffffffffffff1602179055508073ffffffffffffffffffffffffffffffffffffffff16600073ffffffffffffffffffffffffffffffffffffffff167f8be0079c531659141344cd1fd0a4f28419497f9722a3daafe3b4186f6b6457e060405160405180910390a35081600360006101000a81548173ffffffffffffffffffffffffffffffffffffffff021916908373ffffffffffffffffffffffffffffffffffffffff16021790555080600460006101000a81548173ffffffffffffffffffffffffffffffffffffffff021916908373ffffffffffffffffffffffffffffffffffffffff1602179055506000600881905550600060098190555050506200022f565b600033905090565b6000815190506200019a8162000215565b92915050565b60008060408385031215620001b457600080fd5b6000620001c48582860162000189565b9250506020620001d78582860162000189565b9150509250929050565b6000620001ee82620001f5565b9050919050565b600073ffffffffffffffffffffffffffffffffffffffff82169050919050565b6200022081620001e1565b81146200022c57600080fd5b50565b613b3b806200023f6000396000f3fe608060405234801561001057600080fd5b50600436106101585760003560e01c80638da5cb5b116100c3578063b91816111161007c578063b9181611146103e3578063c8691b2a14610413578063cf1c316a14610449578063d0ff01bb14610465578063f2fde38b14610481578063fe41146b1461049d57610158565b80638da5cb5b146103195780638f32d59b14610337578063a18861a314610355578063a49e945d14610373578063a7a38f0b1461038f578063a9c7c536146103c757610158565b80634423c5f1116101155780634423c5f11461023c578063485d7d94146102705780634b3936051461028c5780634d2ef416146102a8578063582c7ffd146102d8578063715018a61461030f57610158565b8063025313a21461015d57806302d2838b1461017b57806309ec6cc7146101975780631e6c598e146101b35780632db25e05146101eb5780632ebe0f1614610220575b600080fd5b6101656104bb565b60405161017291906134c8565b60405180910390f35b61019560048036036101909190810190612f0e565b6104ca565b005b6101b160048036036101ac9190810190612f0e565b610a3d565b005b6101cd60048036036101c89190810190612f0e565b610ed1565b6040516101e299989796959493929190613588565b60405180910390f35b61020560048036036102009190810190612f0e565b610f5f565b60405161021796959493929190613755565b60405180910390f35b61023a60048036036102359190810190612ea9565b6110c2565b005b61025660048036036102519190810190612f0e565b611150565b604051610267959493929190613702565b60405180910390f35b61028a60048036036102859190810190612e80565b6111a6565b005b6102a660048036036102a19190810190612f37565b611313565b005b6102c260048036036102bd9190810190612f0e565b61174b565b6040516102cf91906137bd565b60405180910390f35b6102f260048036036102ed9190810190612f37565b6118a3565b604051610306989796959493929190613684565b60405180910390f35b610317611acb565b005b610321611bd1565b60405161032e91906134c8565b60405180910390f35b61033f611bfa565b60405161034c91906137df565b60405180910390f35b61035d611c58565b60405161036a919061393a565b60405180910390f35b61038d60048036036103889190810190612f73565b611c65565b005b6103a960048036036103a49190810190612f0e565b611fd5565b6040516103be99989796959493929190613588565b60405180910390f35b6103e160048036036103dc9190810190612f37565b612070565b005b6103fd60048036036103f89190810190612e80565b6125ef565b60405161040a91906137df565b60405180910390f35b61042d60048036036104289190810190612f0e565b61260f565b6040516104409796959493929190613615565b60405180910390f35b610463600480360361045e9190810190612e80565b61277b565b005b61047f600480360361047a9190810190612f73565b6128ae565b005b61049b60048036036104969190810190612e80565b612b85565b005b6104a5612bd8565b6040516104b2919061393a565b60405180910390f35b60008060019050805491505090565b6104d2612d18565b60056000838152602001908152602001600020604051806101200160405290816000820160009054906101000a900473ffffffffffffffffffffffffffffffffffffffff1673ffffffffffffffffffffffffffffffffffffffff1673ffffffffffffffffffffffffffffffffffffffff1681526020016001820160009054906101000a900473ffffffffffffffffffffffffffffffffffffffff1673ffffffffffffffffffffffffffffffffffffffff1673ffffffffffffffffffffffffffffffffffffffff16815260200160028201548152602001600382015481526020016004820154815260200160058201548152602001600782015481526020016008820154815260200160098201548152505090507f4f70656e0000000000000000000000000000000000000000000000000000000081608001511461064b576040517f08c379a00000000000000000000000000000000000000000000000000000000081526004016106429061381a565b60405180910390fd5b7f4f666665720000000000000000000000000000000000000000000000000000008160a00151146106b1576040517f08c379a00000000000000000000000000000000000000000000000000000000081526004016106a8906138fa565b60405180910390fd5b600360009054906101000a900473ffffffffffffffffffffffffffffffffffffffff1673ffffffffffffffffffffffffffffffffffffffff166323b872dd33836020015184606001516040518463ffffffff1660e01b8152600401610718939291906134e3565b602060405180830381600087803b15801561073257600080fd5b505af1158015610746573d6000803e3d6000fd5b505050506040513d601f19601f8201168201806040525061076a9190810190612ee5565b50600460009054906101000a900473ffffffffffffffffffffffffffffffffffffffff1673ffffffffffffffffffffffffffffffffffffffff166323b872dd303384604001516040518463ffffffff1660e01b81526004016107ce9392919061351a565b600060405180830381600087803b1580156107e857600080fd5b505af11580156107fc573d6000803e3d6000fd5b505050507f45786563757465640000000000000000000000000000000000000000000000006005600084815260200190815260200160002060040181905550336005600084815260200190815260200160002060000160006101000a81548173ffffffffffffffffffffffffffffffffffffffff021916908373ffffffffffffffffffffffffffffffffffffffff1602179055504260056000848152602001908152602001600020600901819055506007600560008481526020019081526020016000209080600181540180825580915050906001820390600052602060002090600a0201600090919290919091506000820160009054906101000a900473ffffffffffffffffffffffffffffffffffffffff168160000160006101000a81548173ffffffffffffffffffffffffffffffffffffffff021916908373ffffffffffffffffffffffffffffffffffffffff1602179055506001820160009054906101000a900473ffffffffffffffffffffffffffffffffffffffff168160010160006101000a81548173ffffffffffffffffffffffffffffffffffffffff021916908373ffffffffffffffffffffffffffffffffffffffff160217905550600282015481600201556003820154816003015560048201548160040155600582015481600501556007820154816007015560088201548160080155600982015481600901555050507f4d38ed2c5ea671a5ccddc331f0ebebd94a60aaf6e572543497485d4d148f9edf82604051610a319190613955565b60405180910390a15050565b610a45612d18565b60056000838152602001908152602001600020604051806101200160405290816000820160009054906101000a900473ffffffffffffffffffffffffffffffffffffffff1673ffffffffffffffffffffffffffffffffffffffff1673ffffffffffffffffffffffffffffffffffffffff1681526020016001820160009054906101000a900473ffffffffffffffffffffffffffffffffffffffff1673ffffffffffffffffffffffffffffffffffffffff1673ffffffffffffffffffffffffffffffffffffffff1681526020016002820154815260200160038201548152602001600482015481526020016005820154815260200160078201548152602001600882015481526020016009820154815250509050806020015173ffffffffffffffffffffffffffffffffffffffff163373ffffffffffffffffffffffffffffffffffffffff1614610bca576040517f08c379a0000000000000000000000000000000000000000000000000000000008152600401610bc19061383a565b60405180910390fd5b7f4f70656e00000000000000000000000000000000000000000000000000000000816080015114610c30576040517f08c379a0000000000000000000000000000000000000000000000000000000008152600401610c279061381a565b60405180910390fd5b600460009054906101000a900473ffffffffffffffffffffffffffffffffffffffff1673ffffffffffffffffffffffffffffffffffffffff166323b872dd30836020015184604001516040518463ffffffff1660e01b8152600401610c9793929190613551565b600060405180830381600087803b158015610cb157600080fd5b505af1158015610cc5573d6000803e3d6000fd5b505050507f43616e63656c6c6564000000000000000000000000000000000000000000000060056000848152602001908152602001600020600401819055507f43616e63656c6c6564000000000000000000000000000000000000000000000060056000848152602001908152602001600020600401819055506007600560008481526020019081526020016000209080600181540180825580915050906001820390600052602060002090600a0201600090919290919091506000820160009054906101000a900473ffffffffffffffffffffffffffffffffffffffff168160000160006101000a81548173ffffffffffffffffffffffffffffffffffffffff021916908373ffffffffffffffffffffffffffffffffffffffff1602179055506001820160009054906101000a900473ffffffffffffffffffffffffffffffffffffffff168160010160006101000a81548173ffffffffffffffffffffffffffffffffffffffff021916908373ffffffffffffffffffffffffffffffffffffffff160217905550600282015481600201556003820154816003015560048201548160040155600582015481600501556007820154816007015560088201548160080155600982015481600901555050507f4d38ed2c5ea671a5ccddc331f0ebebd94a60aaf6e572543497485d4d148f9edf82604051610ec5919061397c565b60405180910390a15050565b60056020528060005260406000206000915090508060000160009054906101000a900473ffffffffffffffffffffffffffffffffffffffff16908060010160009054906101000a900473ffffffffffffffffffffffffffffffffffffffff16908060020154908060030154908060040154908060050154908060070154908060080154908060090154905089565b60008060008060006060610f71612d18565b60056000898152602001908152602001600020604051806101200160405290816000820160009054906101000a900473ffffffffffffffffffffffffffffffffffffffff1673ffffffffffffffffffffffffffffffffffffffff1673ffffffffffffffffffffffffffffffffffffffff1681526020016001820160009054906101000a900473ffffffffffffffffffffffffffffffffffffffff1673ffffffffffffffffffffffffffffffffffffffff1673ffffffffffffffffffffffffffffffffffffffff1681526020016002820154815260200160038201548152602001600482015481526020016005820154815260200160078201548152602001600882015481526020016009820154815250509050606061108f8961174b565b905081602001518260400151836060015184608001518560a0015185975097509750975097509750505091939550919395565b81600360006101000a81548173ffffffffffffffffffffffffffffffffffffffff021916908373ffffffffffffffffffffffffffffffffffffffff16021790555080600460006101000a81548173ffffffffffffffffffffffffffffffffffffffff021916908373ffffffffffffffffffffffffffffffffffffffff16021790555060006008819055505050565b60066020528060005260406000206000915090508060000160009054906101000a900473ffffffffffffffffffffffffffffffffffffffff16908060010154908060020154908060030154908060040154905085565b6111ae611bfa565b6111ed576040517f08c379a00000000000000000000000000000000000000000000000000000000081526004016111e4906138ba565b60405180910390fd5b600073ffffffffffffffffffffffffffffffffffffffff168173ffffffffffffffffffffffffffffffffffffffff16141561122757600080fd5b3373ffffffffffffffffffffffffffffffffffffffff168173ffffffffffffffffffffffffffffffffffffffff16141561126057600080fd5b6000600260008373ffffffffffffffffffffffffffffffffffffffff1673ffffffffffffffffffffffffffffffffffffffff16815260200190815260200160002060006101000a81548160ff0219169083151502179055506000600160008373ffffffffffffffffffffffffffffffffffffffff1673ffffffffffffffffffffffffffffffffffffffff16815260200190815260200160002060006101000a81548160ff02191690831515021790555050565b61131b612d18565b60056000848152602001908152602001600020604051806101200160405290816000820160009054906101000a900473ffffffffffffffffffffffffffffffffffffffff1673ffffffffffffffffffffffffffffffffffffffff1673ffffffffffffffffffffffffffffffffffffffff1681526020016001820160009054906101000a900473ffffffffffffffffffffffffffffffffffffffff1673ffffffffffffffffffffffffffffffffffffffff1673ffffffffffffffffffffffffffffffffffffffff1681526020016002820154815260200160038201548152602001600482015481526020016005820154815260200160078201548152602001600882015481526020016009820154815250509050611436612d96565b6005600085815260200190815260200160002060060160008481526020019081526020016000206040518060a00160405290816000820160009054906101000a900473ffffffffffffffffffffffffffffffffffffffff1673ffffffffffffffffffffffffffffffffffffffff1673ffffffffffffffffffffffffffffffffffffffff1681526020016001820154815260200160028201548152602001600382015481526020016004820154815250509050806000015173ffffffffffffffffffffffffffffffffffffffff163373ffffffffffffffffffffffffffffffffffffffff161461155a576040517f08c379a0000000000000000000000000000000000000000000000000000000008152600401611551906138da565b60405180910390fd5b7f4f70656e000000000000000000000000000000000000000000000000000000008260800151146115c0576040517f08c379a00000000000000000000000000000000000000000000000000000000081526004016115b79061381a565b60405180910390fd5b7f42696400000000000000000000000000000000000000000000000000000000008260a0015114611626576040517f08c379a000000000000000000000000000000000000000000000000000000000815260040161161d9061385a565b60405180910390fd5b600460009054906101000a900473ffffffffffffffffffffffffffffffffffffffff1673ffffffffffffffffffffffffffffffffffffffff166323b872dd30836000015184602001516040518463ffffffff1660e01b815260040161168d93929190613551565b600060405180830381600087803b1580156116a757600080fd5b505af11580156116bb573d6000803e3d6000fd5b505050507f43616e63656c6c65640000000000000000000000000000000000000000000000600560008681526020019081526020016000206006016000858152602001908152602001600020600301819055507f0ad2d2199d845a32488abc3995b0a8d14adec51279a740f1663a7dee204ad3948460405161173d919061397c565b60405180910390a150505050565b606080600560008481526020019081526020016000206007015460405190808252806020026020018201604052801561179e57816020015b61178b612de1565b8152602001906001900390816117835790505b50905060008090505b6005600085815260200190815260200160002060070154811015611899576005600085815260200190815260200160002060060160008281526020019081526020016000206040518060a00160405290816000820160009054906101000a900473ffffffffffffffffffffffffffffffffffffffff1673ffffffffffffffffffffffffffffffffffffffff1673ffffffffffffffffffffffffffffffffffffffff16815260200160018201548152602001600282015481526020016003820154815260200160048201548152505082828151811061188157fe5b602002602001018190525080806001019150506117a7565b5080915050919050565b6000806000806000806000806118b7612d18565b600560008c8152602001908152602001600020604051806101200160405290816000820160009054906101000a900473ffffffffffffffffffffffffffffffffffffffff1673ffffffffffffffffffffffffffffffffffffffff1673ffffffffffffffffffffffffffffffffffffffff1681526020016001820160009054906101000a900473ffffffffffffffffffffffffffffffffffffffff1673ffffffffffffffffffffffffffffffffffffffff1673ffffffffffffffffffffffffffffffffffffffff16815260200160028201548152602001600382015481526020016004820154815260200160058201548152602001600782015481526020016008820154815260200160098201548152505090506119d2612d96565b600560008d815260200190815260200160002060060160008c81526020019081526020016000206040518060a00160405290816000820160009054906101000a900473ffffffffffffffffffffffffffffffffffffffff1673ffffffffffffffffffffffffffffffffffffffff1673ffffffffffffffffffffffffffffffffffffffff1681526020016001820154815260200160028201548152602001600382015481526020016004820154815250509050816020015182604001518360600151846080015184600001518560200151866040015187606001519950995099509950995099509950995050509295985092959890939650565b611ad3611bfa565b611b12576040517f08c379a0000000000000000000000000000000000000000000000000000000008152600401611b09906138ba565b60405180910390fd5b600073ffffffffffffffffffffffffffffffffffffffff166000809054906101000a900473ffffffffffffffffffffffffffffffffffffffff1673ffffffffffffffffffffffffffffffffffffffff167f8be0079c531659141344cd1fd0a4f28419497f9722a3daafe3b4186f6b6457e060405160405180910390a360008060006101000a81548173ffffffffffffffffffffffffffffffffffffffff021916908373ffffffffffffffffffffffffffffffffffffffff160217905550565b60008060009054906101000a900473ffffffffffffffffffffffffffffffffffffffff16905090565b60008060009054906101000a900473ffffffffffffffffffffffffffffffffffffffff1673ffffffffffffffffffffffffffffffffffffffff16611c3c612be2565b73ffffffffffffffffffffffffffffffffffffffff1614905090565b6000600780549050905090565b600460009054906101000a900473ffffffffffffffffffffffffffffffffffffffff1673ffffffffffffffffffffffffffffffffffffffff166323b872dd3330866040518463ffffffff1660e01b8152600401611cc4939291906134e3565b600060405180830381600087803b158015611cde57600080fd5b505af1158015611cf2573d6000803e3d6000fd5b50505050611cfe612d18565b604051806101200160405280600073ffffffffffffffffffffffffffffffffffffffff1681526020013373ffffffffffffffffffffffffffffffffffffffff1681526020018581526020018481526020017f4f70656e000000000000000000000000000000000000000000000000000000008152602001838152602001600081526020014281526020014281525090508060056000600854815260200190815260200160002060008201518160000160006101000a81548173ffffffffffffffffffffffffffffffffffffffff021916908373ffffffffffffffffffffffffffffffffffffffff16021790555060208201518160010160006101000a81548173ffffffffffffffffffffffffffffffffffffffff021916908373ffffffffffffffffffffffffffffffffffffffff16021790555060408201518160020155606082015181600301556080820151816004015560a0820151816005015560c0820151816007015560e08201518160080155610100820151816009015590505060016008600082825401925050819055506007819080600181540180825580915050906001820390600052602060002090600a02016000909192909190915060008201518160000160006101000a81548173ffffffffffffffffffffffffffffffffffffffff021916908373ffffffffffffffffffffffffffffffffffffffff16021790555060208201518160010160006101000a81548173ffffffffffffffffffffffffffffffffffffffff021916908373ffffffffffffffffffffffffffffffffffffffff16021790555060408201518160020155606082015181600301556080820151816004015560a0820151816005015560c0820151816007015560e0820151816008015561010082015181600901555050507f4d38ed2c5ea671a5ccddc331f0ebebd94a60aaf6e572543497485d4d148f9edf600160085403604051611fc791906139a3565b60405180910390a150505050565b60078181548110611fe257fe5b90600052602060002090600a02016000915090508060000160009054906101000a900473ffffffffffffffffffffffffffffffffffffffff16908060010160009054906101000a900473ffffffffffffffffffffffffffffffffffffffff16908060020154908060030154908060040154908060050154908060070154908060080154908060090154905089565b612078612d18565b60056000848152602001908152602001600020604051806101200160405290816000820160009054906101000a900473ffffffffffffffffffffffffffffffffffffffff1673ffffffffffffffffffffffffffffffffffffffff1673ffffffffffffffffffffffffffffffffffffffff1681526020016001820160009054906101000a900473ffffffffffffffffffffffffffffffffffffffff1673ffffffffffffffffffffffffffffffffffffffff1673ffffffffffffffffffffffffffffffffffffffff1681526020016002820154815260200160038201548152602001600482015481526020016005820154815260200160078201548152602001600882015481526020016009820154815250509050806020015173ffffffffffffffffffffffffffffffffffffffff163373ffffffffffffffffffffffffffffffffffffffff16146121fd576040517f08c379a00000000000000000000000000000000000000000000000000000000081526004016121f49061389a565b60405180910390fd5b7f4f70656e00000000000000000000000000000000000000000000000000000000816080015114612263576040517f08c379a000000000000000000000000000000000000000000000000000000000815260040161225a9061381a565b60405180910390fd5b7f42696400000000000000000000000000000000000000000000000000000000008160a00151146122c9576040517f08c379a00000000000000000000000000000000000000000000000000000000081526004016122c09061391a565b60405180910390fd5b6122d1612d96565b6005600085815260200190815260200160002060060160008481526020019081526020016000206040518060a00160405290816000820160009054906101000a900473ffffffffffffffffffffffffffffffffffffffff1673ffffffffffffffffffffffffffffffffffffffff1673ffffffffffffffffffffffffffffffffffffffff1681526020016001820154815260200160028201548152602001600382015481526020016004820154815250509050600360009054906101000a900473ffffffffffffffffffffffffffffffffffffffff1673ffffffffffffffffffffffffffffffffffffffff166323b872dd33836000015184604001516040518463ffffffff1660e01b81526004016123ea939291906134e3565b602060405180830381600087803b15801561240457600080fd5b505af1158015612418573d6000803e3d6000fd5b505050506040513d601f19601f8201168201806040525061243c9190810190612ee5565b50600460009054906101000a900473ffffffffffffffffffffffffffffffffffffffff1673ffffffffffffffffffffffffffffffffffffffff166323b872dd30836000015184602001516040518463ffffffff1660e01b81526004016124a493929190613551565b600060405180830381600087803b1580156124be57600080fd5b505af11580156124d2573d6000803e3d6000fd5b505050507f457865637574656400000000000000000000000000000000000000000000000060056000868152602001908152602001600020600401819055504260056000868152602001908152602001600020600901819055507f4578656375746564000000000000000000000000000000000000000000000000600560008681526020019081526020016000206006016000858152602001908152602001600020600301819055507f4d38ed2c5ea671a5ccddc331f0ebebd94a60aaf6e572543497485d4d148f9edf846040516125aa9190613955565b60405180910390a17f0ad2d2199d845a32488abc3995b0a8d14adec51279a740f1663a7dee204ad394836040516125e19190613955565b60405180910390a150505050565b60026020528060005260406000206000915054906101000a900460ff1681565b6000806000806000806000612622612d18565b6007898154811061262f57fe5b90600052602060002090600a0201604051806101200160405290816000820160009054906101000a900473ffffffffffffffffffffffffffffffffffffffff1673ffffffffffffffffffffffffffffffffffffffff1673ffffffffffffffffffffffffffffffffffffffff1681526020016001820160009054906101000a900473ffffffffffffffffffffffffffffffffffffffff1673ffffffffffffffffffffffffffffffffffffffff1673ffffffffffffffffffffffffffffffffffffffff1681526020016002820154815260200160038201548152602001600482015481526020016005820154815260200160078201548152602001600882015481526020016009820154815250509050806020015181600001518260400151836060015184608001518560e00151866101000151975097509750975097509750975050919395979092949650565b612783611bfa565b6127c2576040517f08c379a00000000000000000000000000000000000000000000000000000000081526004016127b9906138ba565b60405180910390fd5b600073ffffffffffffffffffffffffffffffffffffffff168173ffffffffffffffffffffffffffffffffffffffff1614156127fc57600080fd5b6001600260008373ffffffffffffffffffffffffffffffffffffffff1673ffffffffffffffffffffffffffffffffffffffff16815260200190815260200160002060006101000a81548160ff02191690831515021790555060018060008373ffffffffffffffffffffffffffffffffffffffff1673ffffffffffffffffffffffffffffffffffffffff16815260200190815260200160002060006101000a81548160ff02191690831515021790555050565b6128b6612d18565b600560006001600854038152602001908152602001600020604051806101200160405290816000820160009054906101000a900473ffffffffffffffffffffffffffffffffffffffff1673ffffffffffffffffffffffffffffffffffffffff1673ffffffffffffffffffffffffffffffffffffffff1681526020016001820160009054906101000a900473ffffffffffffffffffffffffffffffffffffffff1673ffffffffffffffffffffffffffffffffffffffff1673ffffffffffffffffffffffffffffffffffffffff16815260200160028201548152602001600382015481526020016004820154815260200160058201548152602001600782015481526020016008820154815260200160098201548152505090507f42696400000000000000000000000000000000000000000000000000000000008160a0015114612a34576040517f08c379a0000000000000000000000000000000000000000000000000000000008152600401612a2b9061387a565b60405180910390fd5b6040518060a001604052803373ffffffffffffffffffffffffffffffffffffffff1681526020018581526020018481526020017f4f70656e0000000000000000000000000000000000000000000000000000000081526020018381525060056000600854815260200190815260200160002060060160008360c00151815260200190815260200160002060008201518160000160006101000a81548173ffffffffffffffffffffffffffffffffffffffff021916908373ffffffffffffffffffffffffffffffffffffffff1602179055506020820151816001015560408201518160020155606082015181600301556080820151816004015590505060018160c00181815101915081815250507f0ad2d2199d845a32488abc3995b0a8d14adec51279a740f1663a7dee204ad39460018260c0015103604051612b7791906139a3565b60405180910390a150505050565b612b8d611bfa565b612bcc576040517f08c379a0000000000000000000000000000000000000000000000000000000008152600401612bc3906138ba565b60405180910390fd5b612bd581612bea565b50565b6000600854905090565b600033905090565b600073ffffffffffffffffffffffffffffffffffffffff168173ffffffffffffffffffffffffffffffffffffffff161415612c5a576040517f08c379a0000000000000000000000000000000000000000000000000000000008152600401612c51906137fa565b60405180910390fd5b8073ffffffffffffffffffffffffffffffffffffffff166000809054906101000a900473ffffffffffffffffffffffffffffffffffffffff1673ffffffffffffffffffffffffffffffffffffffff167f8be0079c531659141344cd1fd0a4f28419497f9722a3daafe3b4186f6b6457e060405160405180910390a3806000806101000a81548173ffffffffffffffffffffffffffffffffffffffff021916908373ffffffffffffffffffffffffffffffffffffffff16021790555050565b604051806101200160405280600073ffffffffffffffffffffffffffffffffffffffff168152602001600073ffffffffffffffffffffffffffffffffffffffff168152602001600081526020016000815260200160008019168152602001600080191681526020016000815260200160008152602001600081525090565b6040518060a00160405280600073ffffffffffffffffffffffffffffffffffffffff168152602001600081526020016000815260200160008019168152602001600080191681525090565b6040518060a00160405280600073ffffffffffffffffffffffffffffffffffffffff168152602001600081526020016000815260200160008019168152602001600080191681525090565b600081359050612e3b81613a9c565b92915050565b600081519050612e5081613ab3565b92915050565b600081359050612e6581613aca565b92915050565b600081359050612e7a81613ae1565b92915050565b600060208284031215612e9257600080fd5b6000612ea084828501612e2c565b91505092915050565b60008060408385031215612ebc57600080fd5b6000612eca85828601612e2c565b9250506020612edb85828601612e2c565b9150509250929050565b600060208284031215612ef757600080fd5b6000612f0584828501612e41565b91505092915050565b600060208284031215612f2057600080fd5b6000612f2e84828501612e6b565b91505092915050565b60008060408385031215612f4a57600080fd5b6000612f5885828601612e6b565b9250506020612f6985828601612e6b565b9150509250929050565b600080600060608486031215612f8857600080fd5b6000612f9686828701612e6b565b9350506020612fa786828701612e6b565b9250506040612fb886828701612e56565b9150509250925092565b6000612fce8383613442565b60a08301905092915050565b612fe381613a66565b82525050565b612ff281613a14565b82525050565b61300181613a14565b82525050565b6000613012826139da565b61301c81856139f2565b9350613027836139ca565b8060005b8381101561305857815161303f8882612fc2565b975061304a836139e5565b92505060018101905061302b565b5085935050505092915050565b61306e81613a26565b82525050565b61307d81613a32565b82525050565b61308c81613a32565b82525050565b7f4578656375746564000000000000000000000000000000000000000000000000815250565b60006130c5602683613a03565b91507f4f776e61626c653a206e6577206f776e657220697320746865207a65726f206160008301527f64647265737300000000000000000000000000000000000000000000000000006020830152604082019050919050565b600061312b601283613a03565b91507f5472616465206973206e6f74204f70656e2e00000000000000000000000000006000830152602082019050919050565b600061316b602683613a03565b91507f54726164652063616e2062652063616e63656c6c6564206f6e6c79206279207060008301527f6f737465722e00000000000000000000000000000000000000000000000000006020830152604082019050919050565b60006131d1601683613a03565b91507f5472616465206973206e6f742062696420747970652e000000000000000000006000830152602082019050919050565b7f43616e63656c6c65640000000000000000000000000000000000000000000000815250565b6000613237602583613a03565b91507f5472616465206d75737420626520626964207479706520746f206f70656e206160008301527f206269642e0000000000000000000000000000000000000000000000000000006020830152604082019050919050565b600061329d602383613a03565b91507f4269642063616e206265206163636570746564206f6e6c7920627920706f737460008301527f65722e00000000000000000000000000000000000000000000000000000000006020830152604082019050919050565b7f4f70656e00000000000000000000000000000000000000000000000000000000815250565b6000613329602083613a03565b91507f4f776e61626c653a2063616c6c6572206973206e6f7420746865206f776e65726000830152602082019050919050565b6000613369602483613a03565b91507f4269642063616e2062652063616e63656c6c6564206f6e6c7920627920706f7360008301527f7465722e000000000000000000000000000000000000000000000000000000006020830152604082019050919050565b60006133cf601c83613a03565b91507f5472616465206973206e6f7420616e206f666665722074797065202e000000006000830152602082019050919050565b600061340f601a83613a03565b91507f5472616465206973206e6f7420616e206269642074797065202e0000000000006000830152602082019050919050565b60a0820160008201516134586000850182612fe9565b50602082015161346b60208501826134aa565b50604082015161347e60408501826134aa565b5060608201516134916060850182613074565b5060808201516134a46080850182613074565b50505050565b6134b381613a5c565b82525050565b6134c281613a5c565b82525050565b60006020820190506134dd6000830184612ff8565b92915050565b60006060820190506134f86000830186612fda565b6135056020830185612ff8565b61351260408301846134b9565b949350505050565b600060608201905061352f6000830186612ff8565b61353c6020830185612fda565b61354960408301846134b9565b949350505050565b60006060820190506135666000830186612ff8565b6135736020830185612ff8565b61358060408301846134b9565b949350505050565b60006101208201905061359e600083018c612ff8565b6135ab602083018b612ff8565b6135b8604083018a6134b9565b6135c560608301896134b9565b6135d26080830188613083565b6135df60a0830187613083565b6135ec60c08301866134b9565b6135f960e08301856134b9565b6136076101008301846134b9565b9a9950505050505050505050565b600060e08201905061362a600083018a612ff8565b6136376020830189612ff8565b61364460408301886134b9565b61365160608301876134b9565b61365e6080830186613083565b61366b60a08301856134b9565b61367860c08301846134b9565b98975050505050505050565b60006101008201905061369a600083018b612ff8565b6136a7602083018a6134b9565b6136b460408301896134b9565b6136c16060830188613083565b6136ce6080830187612ff8565b6136db60a08301866134b9565b6136e860c08301856134b9565b6136f560e0830184613083565b9998505050505050505050565b600060a0820190506137176000830188612ff8565b61372460208301876134b9565b61373160408301866134b9565b61373e6060830185613083565b61374b6080830184613083565b9695505050505050565b600060c08201905061376a6000830189612ff8565b61377760208301886134b9565b61378460408301876134b9565b6137916060830186613083565b61379e6080830185613083565b81810360a08301526137b08184613007565b9050979650505050505050565b600060208201905081810360008301526137d78184613007565b905092915050565b60006020820190506137f46000830184613065565b92915050565b60006020820190508181036000830152613813816130b8565b9050919050565b600060208201905081810360008301526138338161311e565b9050919050565b600060208201905081810360008301526138538161315e565b9050919050565b60006020820190508181036000830152613873816131c4565b9050919050565b600060208201905081810360008301526138938161322a565b9050919050565b600060208201905081810360008301526138b381613290565b9050919050565b600060208201905081810360008301526138d38161331c565b9050919050565b600060208201905081810360008301526138f38161335c565b9050919050565b60006020820190508181036000830152613913816133c2565b9050919050565b6000602082019050818103600083015261393381613402565b9050919050565b600060208201905061394f60008301846134b9565b92915050565b600060408201905061396a60008301846134b9565b61397660208301613092565b92915050565b600060408201905061399160008301846134b9565b61399d60208301613204565b92915050565b60006040820190506139b860008301846134b9565b6139c4602083016132f6565b92915050565b6000819050602082019050919050565b600081519050919050565b6000602082019050919050565b600082825260208201905092915050565b600082825260208201905092915050565b6000613a1f82613a3c565b9050919050565b60008115159050919050565b6000819050919050565b600073ffffffffffffffffffffffffffffffffffffffff82169050919050565b6000819050919050565b6000613a7182613a78565b9050919050565b6000613a8382613a8a565b9050919050565b6000613a9582613a3c565b9050919050565b613aa581613a14565b8114613ab057600080fd5b50565b613abc81613a26565b8114613ac757600080fd5b50565b613ad381613a32565b8114613ade57600080fd5b50565b613aea81613a5c565b8114613af557600080fd5b5056fea365627a7a72315820b8e008e2f493bd67994d3c6dc0ba6c1053656a0e8e65ae7c0fb580a0d64b4b376c6578706572696d656e74616cf564736f6c63430005110040",
  "source": "pragma solidity ^0.5.0;\npragma experimental ABIEncoderV2;\nimport \"@openzeppelin/contracts/ownership/Ownable.sol\";\nimport \"@openzeppelin/contracts/token/ERC20/IERC20.sol\";\nimport \"@openzeppelin/contracts/token/ERC721/IERC721.sol\";\nimport \"./AmanaAuthorizable.sol\";\n\n\n\n/**\n * @title AmanaMarketplace\n * @notice Implements the classifieds board market. The market will be governed\n * by an ERC20 token as currency, and an ERC721 token that represents the\n * ownership of the items being traded. Only ads for selling items are\n * implemented. The item tokenization is responsibility of the ERC721 contract\n * which should encode any item details.\n */\ncontract AmanaMarketplace is AmanaAuthorizable {\n    event TradeStatusChange(uint256 ad, bytes32 status);\n    event BidStatusChange(uint256 ad, bytes32 status);\n\n    IERC20 currencyToken;\n    IERC721 itemToken;\n\n    struct Trade {\n        address executer;\n        address poster;\n        uint256 item;\n        uint256 price;\n        bytes32 status; // Open, Executed, Cancelled\n        bytes32 tradeType; // Offer, Bid\n        mapping(uint256 => Bid) bids;\n        uint256 bidCounter;\n        uint256 openTime;\n        uint256 closeTime;\n    }\n\n    struct Bid {\n        address bidder;\n        uint256 item;\n        uint256 price;\n        bytes32 status; // Open, Executed, Cancelled\n        bytes32 visibility; // Open, OnlyOwner, \n    }\n\n    mapping(uint256 => Trade) public trades;\n    mapping(uint256 => Bid) public bids;\n    Trade[] public history;\n\n    uint256 tradeCounter;\n    uint256 bidCounter;\n\n    constructor (address _currencyTokenAddress, address _itemTokenAddress)\n        public\n    {\n        currencyToken = IERC20(_currencyTokenAddress);\n        itemToken = IERC721(_itemTokenAddress);\n        tradeCounter = 0;\n        bidCounter = 0;\n    }\n\n\n    function getHistoryCount() public view returns(uint count) {\n        return history.length;\n    }\n\n    function getHistory(uint256 _id) \n        public \n        view \n        returns (address, address, uint256, uint256, bytes32, uint256, uint256) {\n        Trade memory trade = history[_id];\n        return (trade.poster, trade.executer, trade.item, trade.price, trade.status, trade.openTime, trade.closeTime);\n    }\n\n    function getTradeCounter()\n        public\n        view\n        returns(uint256)\n    {\n        return tradeCounter;\n    }\n\n    function getAllTradeBids(uint256 _trade) public view returns (Bid[] memory){\n    \n        Bid[] memory bidList = new Bid[](trades[_trade].bidCounter);\n        for (uint i = 0; i < trades[_trade].bidCounter; i++) {\n            bidList[i] = trades[_trade].bids[i];\n        }\n        return bidList;\n    }\n\n    /**\n     * @dev Returns the details for a trade.\n     * @param _trade The id for the trade.\n     */\n    function getTrade(uint256 _trade)\n        public\n        view\n        returns(address, uint256, uint256, bytes32, bytes32, Bid[] memory)\n    {\n        Trade memory trade = trades[_trade];\n        Bid[] memory bidList = getAllTradeBids(_trade);\n        return (trade.poster, trade.item, trade.price, trade.status, trade.tradeType, bidList);\n    }\n\n    /**\n     * @dev Returns the details for a bid.\n     * @param _trade The id for the trade.\n     * @param _bid The id for the bid.\n     */\n    function getBid(uint256 _trade, uint256 _bid)\n        public\n        view\n        returns(address, uint256, uint256, bytes32, address, uint256, uint256, bytes32)\n    {\n        Trade memory trade = trades[_trade];\n        Bid memory bid = trades[_trade].bids[_bid];\n        return (trade.poster, trade.item, trade.price, trade.status, bid.bidder, bid.item, bid.price, bid.status);\n    }\n\n    /**\n     * @dev Opens a new bid. Puts _item in escrow.\n     * @param _item The id for the item to bid on.\n     * @param _price The amount of currency for which to bid the item.\n     * @param _visibility The visibility for which to bid the item.\n     */\n    function openBid(uint256 _item, uint256 _price, bytes32 _visibility)\n        public\n    {\n        Trade memory trade = trades[tradeCounter-1];\n        require(trade.tradeType == \"Bid\", \"Trade must be bid type to open a bid.\");\n        trades[tradeCounter].bids[trade.bidCounter] = Bid({\n            bidder: msg.sender,\n            item: _item,\n            price: _price,\n            status: \"Open\",\n            visibility : _visibility\n        });\n        trade.bidCounter += 1;\n        emit BidStatusChange(trade.bidCounter - 1, \"Open\");\n    }\n\n\n    /**\n     * @dev Opens a new trade. Puts _item in escrow.\n     * @param _item The id for the item to trade.\n     * @param _price The amount of currency for which to trade the item.\n     */\n    function openTrade(uint256 _item, uint256 _price, bytes32 _tradeType)\n        public\n    {\n        itemToken.transferFrom(msg.sender, address(this), _item);\n        Trade memory trade = Trade({\n            poster: msg.sender,\n            executer: 0x0000000000000000000000000000000000000000,\n            item: _item,\n            price: _price,\n            status: \"Open\",\n            tradeType: _tradeType,\n            bidCounter: 0,\n            openTime: now,\n            closeTime: now\n        });\n        trades[tradeCounter] = trade;\n        tradeCounter += 1;\n        history.push(trade);\n        emit TradeStatusChange(tradeCounter - 1, \"Open\");\n    }\n\n    /**\n     * @dev Executes a trade. Must have approved this contract to transfer the\n     * amount of currency specified to the poster. Transfers ownership of the\n     * item to the filler.\n     * @param _trade The id of an existing trade\n     */\n    function executeTrade(uint256 _trade)\n        public\n    {\n        Trade memory trade = trades[_trade];\n        require(trade.status == \"Open\", \"Trade is not Open.\");\n        require(trade.tradeType == \"Offer\", \"Trade is not an offer type .\");\n        currencyToken.transferFrom(msg.sender, trade.poster, trade.price);\n        itemToken.transferFrom(address(this), msg.sender, trade.item);\n        trades[_trade].status = \"Executed\";\n        trades[_trade].executer = msg.sender;\n        trades[_trade].closeTime = now;\n        history.push(trades[_trade]);\n        emit TradeStatusChange(_trade, \"Executed\");\n    }\n\n    /**\n     * @dev Executes a trade. Must have approved this contract to transfer the\n     * amount of currency specified to the poster. Transfers ownership of the\n     * item to the filler.\n     * @param _trade The id of an existing trade\n     */\n    function executeBid(uint256 _trade, uint256 _bid)\n        public\n    {\n        Trade memory trade = trades[_trade];\n        require(\n            msg.sender == trade.poster,\n            \"Bid can be accepted only by poster.\"\n        );\n        require(trade.status == \"Open\", \"Trade is not Open.\");\n        require(trade.tradeType == \"Bid\", \"Trade is not an bid type .\");\n        Bid memory bid = trades[_trade].bids[_bid];\n        currencyToken.transferFrom(msg.sender, bid.bidder, bid.price);\n        itemToken.transferFrom(address(this), bid.bidder, bid.item);\n        trades[_trade].status = \"Executed\";\n        trades[_trade].closeTime = now;\n        trades[_trade].bids[_bid].status = \"Executed\";\n        emit TradeStatusChange(_trade, \"Executed\");\n        emit BidStatusChange(_bid, \"Executed\");\n    }\n\n    /**\n     * @dev Cancels a trade by the poster.\n     * @param _trade The trade to be cancelled.\n     */\n    function cancelTrade(uint256 _trade)\n        public\n    {\n        Trade memory trade = trades[_trade];\n        require(\n            msg.sender == trade.poster,\n            \"Trade can be cancelled only by poster.\"\n        );\n        require(trade.status == \"Open\", \"Trade is not Open.\");\n        itemToken.transferFrom(address(this), trade.poster, trade.item);\n        trades[_trade].status = \"Cancelled\";\n        trades[_trade].status = \"Cancelled\";\n        history.push(trades[_trade]);\n        emit TradeStatusChange(_trade, \"Cancelled\");\n    }\n\n    /**\n     * @dev Cancels a trade by the poster.\n     * @param _trade The trade that contain the bid to be cancelled.\n     * @param _bid The bid to be cancelled.\n     */\n    function cancelBid(uint256 _trade, uint256 _bid)\n        public\n    {\n        Trade memory trade = trades[_trade];\n        Bid memory bid = trades[_trade].bids[_bid];\n        require(\n            msg.sender == bid.bidder,\n            \"Bid can be cancelled only by poster.\"\n        );\n        require(trade.status == \"Open\", \"Trade is not Open.\");\n        require(trade.tradeType == \"Bid\", \"Trade is not bid type.\");\n        itemToken.transferFrom(address(this), bid.bidder, bid.item);\n        trades[_trade].bids[_bid].status = \"Cancelled\";\n        emit BidStatusChange(_trade, \"Cancelled\");\n    }\n\n\n    function lateInitializee (address _currencyTokenAddress, address _itemTokenAddress)\n        public\n    {\n        currencyToken = IERC20(_currencyTokenAddress);\n        itemToken = IERC721(_itemTokenAddress);\n        tradeCounter = 0;\n    }\n}",
  "sourcePath": "/Users/lmehdi/Desktop/hackathon-blockchain/contracts/AmanaMarketplace.sol",
  "compiler": {
    "name": "solc",
    "version": "0.5.17+commit.d19bba13.Emscripten.clang"
  },
  "schemaVersion": "3.4.3",
  "updatedAt": "2021-10-31T19:31:56.501Z",
  "networkType": "ethereum",
  "devdoc": {
    "methods": {
      "cancelBid(uint256,uint256)": {
        "details": "Cancels a trade by the poster.",
        "params": {
          "_bid": "The bid to be cancelled.",
          "_trade": "The trade that contain the bid to be cancelled."
        }
      },
      "cancelTrade(uint256)": {
        "details": "Cancels a trade by the poster.",
        "params": {
          "_trade": "The trade to be cancelled."
        }
      },
      "executeBid(uint256,uint256)": {
        "details": "Executes a trade. Must have approved this contract to transfer the amount of currency specified to the poster. Transfers ownership of the item to the filler.",
        "params": {
          "_trade": "The id of an existing trade"
        }
      },
      "executeTrade(uint256)": {
        "details": "Executes a trade. Must have approved this contract to transfer the amount of currency specified to the poster. Transfers ownership of the item to the filler.",
        "params": {
          "_trade": "The id of an existing trade"
        }
      },
      "getBid(uint256,uint256)": {
        "details": "Returns the details for a bid.",
        "params": {
          "_bid": "The id for the bid.",
          "_trade": "The id for the trade."
        }
      },
      "getTrade(uint256)": {
        "details": "Returns the details for a trade.",
        "params": {
          "_trade": "The id for the trade."
        }
      },
      "isOwner()": {
        "details": "Returns true if the caller is the current owner."
      },
      "openBid(uint256,uint256,bytes32)": {
        "details": "Opens a new bid. Puts _item in escrow.",
        "params": {
          "_item": "The id for the item to bid on.",
          "_price": "The amount of currency for which to bid the item.",
          "_visibility": "The visibility for which to bid the item."
        }
      },
      "openTrade(uint256,uint256,bytes32)": {
        "details": "Opens a new trade. Puts _item in escrow.",
        "params": {
          "_item": "The id for the item to trade.",
          "_price": "The amount of currency for which to trade the item."
        }
      },
      "owner()": {
        "details": "Returns the address of the current owner."
      },
      "proxyOwner()": {
        "details": "Tells the address of the owner",
        "return": "the address of the owner"
      },
      "renounceOwnership()": {
        "details": "Leaves the contract without owner. It will not be possible to call `onlyOwner` functions anymore. Can only be called by the current owner.     * NOTE: Renouncing ownership will leave the contract without an owner, thereby removing any functionality that is only available to the owner."
      },
      "transferOwnership(address)": {
        "details": "Transfers ownership of the contract to a new account (`newOwner`). Can only be called by the current owner."
      }
    },
    "title": "AmanaMarketplace"
  },
  "userdoc": {
    "methods": {},
    "notice": "Implements the classifieds board market. The market will be governed by an ERC20 token as currency, and an ERC721 token that represents the ownership of the items being traded. Only ads for selling items are implemented. The item tokenization is responsibility of the ERC721 contract which should encode any item details."
  }
}