{
  "contractName": "AmanaProxy",
  "abi": [
    {
      "inputs": [],
      "payable": false,
      "stateMutability": "nonpayable",
      "type": "constructor"
    },
    {
      "anonymous": false,
      "inputs": [
        {
          "indexed": true,
          "internalType": "address",
          "name": "previousOwner",
          "type": "address"
        },
        {
          "indexed": true,
          "internalType": "address",
          "name": "newOwner",
          "type": "address"
        }
      ],
      "name": "OwnershipTransferred",
      "type": "event"
    },
    {
      "constant": false,
      "inputs": [
        {
          "internalType": "address",
          "name": "_toAdd",
          "type": "address"
        }
      ],
      "name": "addAuthorized",
      "outputs": [],
      "payable": false,
      "stateMutability": "nonpayable",
      "type": "function"
    },
    {
      "constant": true,
      "inputs": [
        {
          "internalType": "address",
          "name": "",
          "type": "address"
        }
      ],
      "name": "authorized",
      "outputs": [
        {
          "internalType": "bool",
          "name": "",
          "type": "bool"
        }
      ],
      "payable": false,
      "stateMutability": "view",
      "type": "function"
    },
    {
      "constant": true,
      "inputs": [],
      "name": "isOwner",
      "outputs": [
        {
          "internalType": "bool",
          "name": "",
          "type": "bool"
        }
      ],
      "payable": false,
      "stateMutability": "view",
      "type": "function"
    },
    {
      "constant": true,
      "inputs": [],
      "name": "owner",
      "outputs": [
        {
          "internalType": "address",
          "name": "",
          "type": "address"
        }
      ],
      "payable": false,
      "stateMutability": "view",
      "type": "function"
    },
    {
      "constant": false,
      "inputs": [
        {
          "internalType": "address",
          "name": "_toRemove",
          "type": "address"
        }
      ],
      "name": "removeAuthorized",
      "outputs": [],
      "payable": false,
      "stateMutability": "nonpayable",
      "type": "function"
    },
    {
      "constant": false,
      "inputs": [],
      "name": "renounceOwnership",
      "outputs": [],
      "payable": false,
      "stateMutability": "nonpayable",
      "type": "function"
    },
    {
      "constant": false,
      "inputs": [
        {
          "internalType": "address",
          "name": "newOwner",
          "type": "address"
        }
      ],
      "name": "transferOwnership",
      "outputs": [],
      "payable": false,
      "stateMutability": "nonpayable",
      "type": "function"
    },
    {
      "constant": false,
      "inputs": [
        {
          "internalType": "address",
          "name": "_newOwner",
          "type": "address"
        }
      ],
      "name": "transferProxyOwnership",
      "outputs": [],
      "payable": false,
      "stateMutability": "nonpayable",
      "type": "function"
    },
    {
      "constant": false,
      "inputs": [
        {
          "internalType": "address",
          "name": "_implementation",
          "type": "address"
        }
      ],
      "name": "upgradeTo",
      "outputs": [],
      "payable": false,
      "stateMutability": "nonpayable",
      "type": "function"
    },
    {
      "constant": true,
      "inputs": [],
      "name": "implementation",
      "outputs": [
        {
          "internalType": "address",
          "name": "impl",
          "type": "address"
        }
      ],
      "payable": false,
      "stateMutability": "view",
      "type": "function"
    },
    {
      "constant": true,
      "inputs": [],
      "name": "proxyOwner",
      "outputs": [
        {
          "internalType": "address",
          "name": "owner",
          "type": "address"
        }
      ],
      "payable": false,
      "stateMutability": "view",
      "type": "function"
    }
  ],
  "bytecode": "0x608060405234801561001057600080fd5b5060006100216100d360201b60201c565b9050806000806101000a81548173ffffffffffffffffffffffffffffffffffffffff021916908373ffffffffffffffffffffffffffffffffffffffff1602179055508073ffffffffffffffffffffffffffffffffffffffff16600073ffffffffffffffffffffffffffffffffffffffff167f8be0079c531659141344cd1fd0a4f28419497f9722a3daafe3b4186f6b6457e060405160405180910390a3506100ce336100db60201b60201c565b61011c565b600033905090565b600060405180807f6f72672e616d616e612e70726f78792e6f776e657200000000000000000000008152506015019050604051809103902090508181555050565b610d4d8061012b6000396000f3fe608060405234801561001057600080fd5b50600436106100a95760003560e01c80638da5cb5b116100715780638da5cb5b146101d45780638f32d59b1461021e578063b918161114610240578063cf1c316a1461029c578063f1739cae146102e0578063f2fde38b14610324576100a9565b8063025313a2146100ae5780633659cfe6146100f8578063485d7d941461013c5780635c60da1b14610180578063715018a6146101ca575b600080fd5b6100b6610368565b604051808273ffffffffffffffffffffffffffffffffffffffff1673ffffffffffffffffffffffffffffffffffffffff16815260200191505060405180910390f35b61013a6004803603602081101561010e57600080fd5b81019080803573ffffffffffffffffffffffffffffffffffffffff1690602001909291905050506103ab565b005b61017e6004803603602081101561015257600080fd5b81019080803573ffffffffffffffffffffffffffffffffffffffff16906020019092919050505061044a565b005b6101886105ea565b604051808273ffffffffffffffffffffffffffffffffffffffff1673ffffffffffffffffffffffffffffffffffffffff16815260200191505060405180910390f35b6101d261062d565b005b6101dc610766565b604051808273ffffffffffffffffffffffffffffffffffffffff1673ffffffffffffffffffffffffffffffffffffffff16815260200191505060405180910390f35b61022661078f565b604051808215151515815260200191505060405180910390f35b6102826004803603602081101561025657600080fd5b81019080803573ffffffffffffffffffffffffffffffffffffffff1690602001909291905050506107ed565b604051808215151515815260200191505060405180910390f35b6102de600480360360208110156102b257600080fd5b81019080803573ffffffffffffffffffffffffffffffffffffffff16906020019092919050505061080d565b005b610322600480360360208110156102f657600080fd5b81019080803573ffffffffffffffffffffffffffffffffffffffff169060200190929190505050610973565b005b6103666004803603602081101561033a57600080fd5b81019080803573ffffffffffffffffffffffffffffffffffffffff169060200190929190505050610a4c565b005b60008060405180807f6f72672e616d616e612e70726f78792e6f776e65720000000000000000000000815250601501905060405180910390209050805491505090565b600260003373ffffffffffffffffffffffffffffffffffffffff1673ffffffffffffffffffffffffffffffffffffffff16815260200190815260200160002060009054906101000a900460ff168061043557503373ffffffffffffffffffffffffffffffffffffffff1661041d610766565b73ffffffffffffffffffffffffffffffffffffffff16145b61043e57600080fd5b61044781610ad2565b50565b61045261078f565b6104c4576040517f08c379a00000000000000000000000000000000000000000000000000000000081526004018080602001828103825260208152602001807f4f776e61626c653a2063616c6c6572206973206e6f7420746865206f776e657281525060200191505060405180910390fd5b600073ffffffffffffffffffffffffffffffffffffffff168173ffffffffffffffffffffffffffffffffffffffff1614156104fe57600080fd5b3373ffffffffffffffffffffffffffffffffffffffff168173ffffffffffffffffffffffffffffffffffffffff16141561053757600080fd5b6000600260008373ffffffffffffffffffffffffffffffffffffffff1673ffffffffffffffffffffffffffffffffffffffff16815260200190815260200160002060006101000a81548160ff0219169083151502179055506000600160008373ffffffffffffffffffffffffffffffffffffffff1673ffffffffffffffffffffffffffffffffffffffff16815260200190815260200160002060006101000a81548160ff02191690831515021790555050565b60008060405180807f6f72672e616d616e612e696d706c656d656e746174696f6e2e61646472657373815250602001905060405180910390209050805491505090565b61063561078f565b6106a7576040517f08c379a00000000000000000000000000000000000000000000000000000000081526004018080602001828103825260208152602001807f4f776e61626c653a2063616c6c6572206973206e6f7420746865206f776e657281525060200191505060405180910390fd5b600073ffffffffffffffffffffffffffffffffffffffff166000809054906101000a900473ffffffffffffffffffffffffffffffffffffffff1673ffffffffffffffffffffffffffffffffffffffff167f8be0079c531659141344cd1fd0a4f28419497f9722a3daafe3b4186f6b6457e060405160405180910390a360008060006101000a81548173ffffffffffffffffffffffffffffffffffffffff021916908373ffffffffffffffffffffffffffffffffffffffff160217905550565b60008060009054906101000a900473ffffffffffffffffffffffffffffffffffffffff16905090565b60008060009054906101000a900473ffffffffffffffffffffffffffffffffffffffff1673ffffffffffffffffffffffffffffffffffffffff166107d1610b24565b73ffffffffffffffffffffffffffffffffffffffff1614905090565b60026020528060005260406000206000915054906101000a900460ff1681565b61081561078f565b610887576040517f08c379a00000000000000000000000000000000000000000000000000000000081526004018080602001828103825260208152602001807f4f776e61626c653a2063616c6c6572206973206e6f7420746865206f776e657281525060200191505060405180910390fd5b600073ffffffffffffffffffffffffffffffffffffffff168173ffffffffffffffffffffffffffffffffffffffff1614156108c157600080fd5b6001600260008373ffffffffffffffffffffffffffffffffffffffff1673ffffffffffffffffffffffffffffffffffffffff16815260200190815260200160002060006101000a81548160ff02191690831515021790555060018060008373ffffffffffffffffffffffffffffffffffffffff1673ffffffffffffffffffffffffffffffffffffffff16815260200190815260200160002060006101000a81548160ff02191690831515021790555050565b600260003373ffffffffffffffffffffffffffffffffffffffff1673ffffffffffffffffffffffffffffffffffffffff16815260200190815260200160002060009054906101000a900460ff16806109fd57503373ffffffffffffffffffffffffffffffffffffffff166109e5610766565b73ffffffffffffffffffffffffffffffffffffffff16145b610a0657600080fd5b600073ffffffffffffffffffffffffffffffffffffffff168173ffffffffffffffffffffffffffffffffffffffff161415610a4057600080fd5b610a4981610b2c565b50565b610a5461078f565b610ac6576040517f08c379a00000000000000000000000000000000000000000000000000000000081526004018080602001828103825260208152602001807f4f776e61626c653a2063616c6c6572206973206e6f7420746865206f776e657281525060200191505060405180910390fd5b610acf81610b6d565b50565b6000610adc6105ea565b90508173ffffffffffffffffffffffffffffffffffffffff168173ffffffffffffffffffffffffffffffffffffffff161415610b1757600080fd5b610b2082610cb1565b5050565b600033905090565b600060405180807f6f72672e616d616e612e70726f78792e6f776e657200000000000000000000008152506015019050604051809103902090508181555050565b600073ffffffffffffffffffffffffffffffffffffffff168173ffffffffffffffffffffffffffffffffffffffff161415610bf3576040517f08c379a0000000000000000000000000000000000000000000000000000000008152600401808060200182810382526026815260200180610cf36026913960400191505060405180910390fd5b8073ffffffffffffffffffffffffffffffffffffffff166000809054906101000a900473ffffffffffffffffffffffffffffffffffffffff1673ffffffffffffffffffffffffffffffffffffffff167f8be0079c531659141344cd1fd0a4f28419497f9722a3daafe3b4186f6b6457e060405160405180910390a3806000806101000a81548173ffffffffffffffffffffffffffffffffffffffff021916908373ffffffffffffffffffffffffffffffffffffffff16021790555050565b600060405180807f6f72672e616d616e612e696d706c656d656e746174696f6e2e61646472657373815250602001905060405180910390209050818155505056fe4f776e61626c653a206e6577206f776e657220697320746865207a65726f2061646472657373a265627a7a72315820290f9b1478f6f2a8f8e9f99bc453fec43adf674da6c8c1dd33170fcab3c348d564736f6c63430005100032",
  "source": "pragma solidity ^0.5.0;\n\nimport \"./AmanaAuthorizable.sol\";\n\ncontract AmanaProxy is AmanaAuthorizable {\n    \n    // Storage position of the address of the current implementation\n    bytes32 private constant implementationPosition = \n        keccak256(\"org.amana.implementation.address\");\n    \n    // Storage position of the owner of the contract\n    bytes32 private constant proxyOwnerPosition = \n        keccak256(\"org.amana.proxy.owner\");\n    \n    /**\n    * @dev Throws if called by any account other than the owner.\n    */\n    modifier onlyProxyOwner() {\n        require (msg.sender == proxyOwner() \n        || msg.sender == 0x3FCfaC012476dD244B5C9D31CcFD83a58786ebed\n        || msg.sender == 0xbee6a9CA84b0d2CA2672A9F28f541f14bED2309A, \"Only owner can call this function.\");\n        _;\n    }\n    \n    /**\n    * @dev the constructor sets owner\n    */\n    constructor() public {\n        _setUpgradeabilityOwner(msg.sender);\n    }\n    \n    /**\n     * @dev Allows the current owner to transfer ownership\n     * @param _newOwner The address to transfer ownership to\n     */\n    function transferProxyOwnership(address _newOwner) \n        public onlyAuthorized \n    {\n        require(_newOwner != address(0));\n        _setUpgradeabilityOwner(_newOwner);\n    }\n    \n    /**\n     * @dev Allows the proxy owner to upgrade the implementation\n     * @param _implementation address of the new implementation\n     */\n    function upgradeTo(address _implementation) \n        public onlyAuthorized\n    {\n        _upgradeTo(_implementation);\n    }\n    \n    /**\n     * @dev Tells the address of the current implementation\n     * @return address of the current implementation\n     */\n    function implementation() public view returns (address impl) {\n        bytes32 position = implementationPosition;\n        assembly {\n            impl := sload(position)\n        }\n    }\n    \n    /**\n     * @dev Tells the address of the owner\n     * @return the address of the owner\n     */\n    function proxyOwner() public view returns (address owner) {\n        bytes32 position = proxyOwnerPosition;\n        assembly {\n            owner := sload(position)\n        }\n    }\n    \n    /**\n     * @dev Sets the address of the current implementation\n     * @param _newImplementation address of the new implementation\n     */\n    function _setImplementation(address _newImplementation) \n        internal \n    {\n        bytes32 position = implementationPosition;\n        assembly {\n            sstore(position, _newImplementation)\n        }\n    }\n    \n    /**\n     * @dev Upgrades the implementation address\n     * @param _newImplementation address of the new implementation\n     */\n    function _upgradeTo(address _newImplementation) internal {\n        address currentImplementation = implementation();\n        require(currentImplementation != _newImplementation);\n        _setImplementation(_newImplementation);\n    }\n    \n    /**\n     * @dev Sets the address of the owner\n     */\n    function _setUpgradeabilityOwner(address _newProxyOwner) \n        internal \n    {\n        bytes32 position = proxyOwnerPosition;\n        assembly {\n            sstore(position, _newProxyOwner)\n        }\n    }\n}",
  "sourcePath": "/Users/bachirdiop/Desktop/Coding4Integrity/hackathon-blockchain/contracts/AmanaProxy.sol",
  "compiler": {
    "name": "solc",
    "version": "0.5.16+commit.9c3226ce.Emscripten.clang"
  },
  "schemaVersion": "3.4.3",
  "updatedAt": "2021-10-26T13:13:23.425Z",
  "networkType": "ethereum",
  "devdoc": {
    "methods": {
      "constructor": {
        "details": "the constructor sets owner"
      },
      "implementation()": {
        "details": "Tells the address of the current implementation",
        "return": "address of the current implementation"
      },
      "isOwner()": {
        "details": "Returns true if the caller is the current owner."
      },
      "owner()": {
        "details": "Returns the address of the current owner."
      },
      "proxyOwner()": {
        "details": "Tells the address of the owner",
        "return": "the address of the owner"
      },
      "renounceOwnership()": {
        "details": "Leaves the contract without owner. It will not be possible to call `onlyOwner` functions anymore. Can only be called by the current owner.     * NOTE: Renouncing ownership will leave the contract without an owner, thereby removing any functionality that is only available to the owner."
      },
      "transferOwnership(address)": {
        "details": "Transfers ownership of the contract to a new account (`newOwner`). Can only be called by the current owner."
      },
      "transferProxyOwnership(address)": {
        "details": "Allows the current owner to transfer ownership",
        "params": {
          "_newOwner": "The address to transfer ownership to"
        }
      },
      "upgradeTo(address)": {
        "details": "Allows the proxy owner to upgrade the implementation",
        "params": {
          "_implementation": "address of the new implementation"
        }
      }
    }
  },
  "userdoc": {
    "methods": {}
  }
}