{
  "contractName": "AmanaMarketplace",
  "abi": [
    {
      "inputs": [
        {
          "internalType": "address",
          "name": "_currencyTokenAddress",
          "type": "address"
        },
        {
          "internalType": "address",
          "name": "_itemTokenAddress",
          "type": "address"
        }
      ],
      "payable": false,
      "stateMutability": "nonpayable",
      "type": "constructor"
    },
    {
      "anonymous": false,
      "inputs": [
        {
          "indexed": false,
          "internalType": "uint256",
          "name": "ad",
          "type": "uint256"
        },
        {
          "indexed": false,
          "internalType": "bytes32",
          "name": "status",
          "type": "bytes32"
        }
      ],
      "name": "BidStatusChange",
      "type": "event"
    },
    {
      "anonymous": false,
      "inputs": [
        {
          "indexed": true,
          "internalType": "address",
          "name": "previousOwner",
          "type": "address"
        },
        {
          "indexed": true,
          "internalType": "address",
          "name": "newOwner",
          "type": "address"
        }
      ],
      "name": "OwnershipTransferred",
      "type": "event"
    },
    {
      "anonymous": false,
      "inputs": [
        {
          "indexed": false,
          "internalType": "uint256",
          "name": "ad",
          "type": "uint256"
        },
        {
          "indexed": false,
          "internalType": "bytes32",
          "name": "status",
          "type": "bytes32"
        }
      ],
      "name": "TradeStatusChange",
      "type": "event"
    },
    {
      "constant": false,
      "inputs": [
        {
          "internalType": "address",
          "name": "_toAdd",
          "type": "address"
        }
      ],
      "name": "addAuthorized",
      "outputs": [],
      "payable": false,
      "stateMutability": "nonpayable",
      "type": "function"
    },
    {
      "constant": true,
      "inputs": [
        {
          "internalType": "address",
          "name": "",
          "type": "address"
        }
      ],
      "name": "authorized",
      "outputs": [
        {
          "internalType": "bool",
          "name": "",
          "type": "bool"
        }
      ],
      "payable": false,
      "stateMutability": "view",
      "type": "function"
    },
    {
      "constant": true,
      "inputs": [
        {
          "internalType": "uint256",
          "name": "",
          "type": "uint256"
        }
      ],
      "name": "bids",
      "outputs": [
        {
          "internalType": "address",
          "name": "bidder",
          "type": "address"
        },
        {
          "internalType": "uint256",
          "name": "item",
          "type": "uint256"
        },
        {
          "internalType": "uint256",
          "name": "price",
          "type": "uint256"
        },
        {
          "internalType": "bytes32",
          "name": "status",
          "type": "bytes32"
        },
        {
          "internalType": "bytes32",
          "name": "visibility",
          "type": "bytes32"
        }
      ],
      "payable": false,
      "stateMutability": "view",
      "type": "function"
    },
    {
      "constant": true,
      "inputs": [
        {
          "internalType": "uint256",
          "name": "",
          "type": "uint256"
        }
      ],
      "name": "history",
      "outputs": [
        {
          "internalType": "address",
          "name": "executer",
          "type": "address"
        },
        {
          "internalType": "address",
          "name": "poster",
          "type": "address"
        },
        {
          "internalType": "uint256",
          "name": "item",
          "type": "uint256"
        },
        {
          "internalType": "uint256",
          "name": "price",
          "type": "uint256"
        },
        {
          "internalType": "bytes32",
          "name": "status",
          "type": "bytes32"
        },
        {
          "internalType": "bytes32",
          "name": "tradeType",
          "type": "bytes32"
        },
        {
          "internalType": "uint256",
          "name": "bidCounter",
          "type": "uint256"
        },
        {
          "internalType": "uint256",
          "name": "openTime",
          "type": "uint256"
        },
        {
          "internalType": "uint256",
          "name": "closeTime",
          "type": "uint256"
        }
      ],
      "payable": false,
      "stateMutability": "view",
      "type": "function"
    },
    {
      "constant": true,
      "inputs": [],
      "name": "isOwner",
      "outputs": [
        {
          "internalType": "bool",
          "name": "",
          "type": "bool"
        }
      ],
      "payable": false,
      "stateMutability": "view",
      "type": "function"
    },
    {
      "constant": true,
      "inputs": [],
      "name": "owner",
      "outputs": [
        {
          "internalType": "address",
          "name": "",
          "type": "address"
        }
      ],
      "payable": false,
      "stateMutability": "view",
      "type": "function"
    },
    {
      "constant": true,
      "inputs": [],
      "name": "proxyOwner",
      "outputs": [
        {
          "internalType": "address",
          "name": "owner",
          "type": "address"
        }
      ],
      "payable": false,
      "stateMutability": "view",
      "type": "function"
    },
    {
      "constant": false,
      "inputs": [
        {
          "internalType": "address",
          "name": "_toRemove",
          "type": "address"
        }
      ],
      "name": "removeAuthorized",
      "outputs": [],
      "payable": false,
      "stateMutability": "nonpayable",
      "type": "function"
    },
    {
      "constant": false,
      "inputs": [],
      "name": "renounceOwnership",
      "outputs": [],
      "payable": false,
      "stateMutability": "nonpayable",
      "type": "function"
    },
    {
      "constant": true,
      "inputs": [
        {
          "internalType": "uint256",
          "name": "",
          "type": "uint256"
        }
      ],
      "name": "trades",
      "outputs": [
        {
          "internalType": "address",
          "name": "executer",
          "type": "address"
        },
        {
          "internalType": "address",
          "name": "poster",
          "type": "address"
        },
        {
          "internalType": "uint256",
          "name": "item",
          "type": "uint256"
        },
        {
          "internalType": "uint256",
          "name": "price",
          "type": "uint256"
        },
        {
          "internalType": "bytes32",
          "name": "status",
          "type": "bytes32"
        },
        {
          "internalType": "bytes32",
          "name": "tradeType",
          "type": "bytes32"
        },
        {
          "internalType": "uint256",
          "name": "bidCounter",
          "type": "uint256"
        },
        {
          "internalType": "uint256",
          "name": "openTime",
          "type": "uint256"
        },
        {
          "internalType": "uint256",
          "name": "closeTime",
          "type": "uint256"
        }
      ],
      "payable": false,
      "stateMutability": "view",
      "type": "function"
    },
    {
      "constant": false,
      "inputs": [
        {
          "internalType": "address",
          "name": "newOwner",
          "type": "address"
        }
      ],
      "name": "transferOwnership",
      "outputs": [],
      "payable": false,
      "stateMutability": "nonpayable",
      "type": "function"
    },
    {
      "constant": true,
      "inputs": [],
      "name": "getHistoryCount",
      "outputs": [
        {
          "internalType": "uint256",
          "name": "count",
          "type": "uint256"
        }
      ],
      "payable": false,
      "stateMutability": "view",
      "type": "function"
    },
    {
      "constant": true,
      "inputs": [
        {
          "internalType": "uint256",
          "name": "_id",
          "type": "uint256"
        }
      ],
      "name": "getHistory",
      "outputs": [
        {
          "internalType": "address",
          "name": "",
          "type": "address"
        },
        {
          "internalType": "address",
          "name": "",
          "type": "address"
        },
        {
          "internalType": "uint256",
          "name": "",
          "type": "uint256"
        },
        {
          "internalType": "uint256",
          "name": "",
          "type": "uint256"
        },
        {
          "internalType": "bytes32",
          "name": "",
          "type": "bytes32"
        },
        {
          "internalType": "uint256",
          "name": "",
          "type": "uint256"
        },
        {
          "internalType": "uint256",
          "name": "",
          "type": "uint256"
        }
      ],
      "payable": false,
      "stateMutability": "view",
      "type": "function"
    },
    {
      "constant": true,
      "inputs": [],
      "name": "getTradeCounter",
      "outputs": [
        {
          "internalType": "uint256",
          "name": "",
          "type": "uint256"
        }
      ],
      "payable": false,
      "stateMutability": "view",
      "type": "function"
    },
    {
      "constant": true,
      "inputs": [
        {
          "internalType": "uint256",
          "name": "_trade",
          "type": "uint256"
        }
      ],
      "name": "getAllTradeBids",
      "outputs": [
        {
          "components": [
            {
              "internalType": "address",
              "name": "bidder",
              "type": "address"
            },
            {
              "internalType": "uint256",
              "name": "item",
              "type": "uint256"
            },
            {
              "internalType": "uint256",
              "name": "price",
              "type": "uint256"
            },
            {
              "internalType": "bytes32",
              "name": "status",
              "type": "bytes32"
            },
            {
              "internalType": "bytes32",
              "name": "visibility",
              "type": "bytes32"
            }
          ],
          "internalType": "struct AmanaMarketplace.Bid[]",
          "name": "",
          "type": "tuple[]"
        }
      ],
      "payable": false,
      "stateMutability": "view",
      "type": "function"
    },
    {
      "constant": true,
      "inputs": [
        {
          "internalType": "uint256",
          "name": "_trade",
          "type": "uint256"
        }
      ],
      "name": "getTrade",
      "outputs": [
        {
          "internalType": "address",
          "name": "",
          "type": "address"
        },
        {
          "internalType": "uint256",
          "name": "",
          "type": "uint256"
        },
        {
          "internalType": "uint256",
          "name": "",
          "type": "uint256"
        },
        {
          "internalType": "bytes32",
          "name": "",
          "type": "bytes32"
        },
        {
          "internalType": "bytes32",
          "name": "",
          "type": "bytes32"
        },
        {
          "components": [
            {
              "internalType": "address",
              "name": "bidder",
              "type": "address"
            },
            {
              "internalType": "uint256",
              "name": "item",
              "type": "uint256"
            },
            {
              "internalType": "uint256",
              "name": "price",
              "type": "uint256"
            },
            {
              "internalType": "bytes32",
              "name": "status",
              "type": "bytes32"
            },
            {
              "internalType": "bytes32",
              "name": "visibility",
              "type": "bytes32"
            }
          ],
          "internalType": "struct AmanaMarketplace.Bid[]",
          "name": "",
          "type": "tuple[]"
        }
      ],
      "payable": false,
      "stateMutability": "view",
      "type": "function"
    },
    {
      "constant": true,
      "inputs": [
        {
          "internalType": "uint256",
          "name": "_trade",
          "type": "uint256"
        },
        {
          "internalType": "uint256",
          "name": "_bid",
          "type": "uint256"
        }
      ],
      "name": "getBid",
      "outputs": [
        {
          "internalType": "address",
          "name": "",
          "type": "address"
        },
        {
          "internalType": "uint256",
          "name": "",
          "type": "uint256"
        },
        {
          "internalType": "uint256",
          "name": "",
          "type": "uint256"
        },
        {
          "internalType": "bytes32",
          "name": "",
          "type": "bytes32"
        },
        {
          "internalType": "address",
          "name": "",
          "type": "address"
        },
        {
          "internalType": "uint256",
          "name": "",
          "type": "uint256"
        },
        {
          "internalType": "uint256",
          "name": "",
          "type": "uint256"
        },
        {
          "internalType": "bytes32",
          "name": "",
          "type": "bytes32"
        }
      ],
      "payable": false,
      "stateMutability": "view",
      "type": "function"
    },
    {
      "constant": false,
      "inputs": [
        {
          "internalType": "uint256",
          "name": "_item",
          "type": "uint256"
        },
        {
          "internalType": "uint256",
          "name": "_price",
          "type": "uint256"
        },
        {
          "internalType": "bytes32",
          "name": "_visibility",
          "type": "bytes32"
        }
      ],
      "name": "openBid",
      "outputs": [],
      "payable": false,
      "stateMutability": "nonpayable",
      "type": "function"
    },
    {
      "constant": false,
      "inputs": [
        {
          "internalType": "uint256",
          "name": "_item",
          "type": "uint256"
        },
        {
          "internalType": "uint256",
          "name": "_price",
          "type": "uint256"
        },
        {
          "internalType": "bytes32",
          "name": "_tradeType",
          "type": "bytes32"
        }
      ],
      "name": "openTrade",
      "outputs": [],
      "payable": false,
      "stateMutability": "nonpayable",
      "type": "function"
    },
    {
      "constant": false,
      "inputs": [
        {
          "internalType": "uint256",
          "name": "_trade",
          "type": "uint256"
        }
      ],
      "name": "executeTrade",
      "outputs": [],
      "payable": false,
      "stateMutability": "nonpayable",
      "type": "function"
    },
    {
      "constant": false,
      "inputs": [
        {
          "internalType": "uint256",
          "name": "_trade",
          "type": "uint256"
        },
        {
          "internalType": "uint256",
          "name": "_bid",
          "type": "uint256"
        }
      ],
      "name": "executeBid",
      "outputs": [],
      "payable": false,
      "stateMutability": "nonpayable",
      "type": "function"
    },
    {
      "constant": false,
      "inputs": [
        {
          "internalType": "uint256",
          "name": "_trade",
          "type": "uint256"
        }
      ],
      "name": "cancelTrade",
      "outputs": [],
      "payable": false,
      "stateMutability": "nonpayable",
      "type": "function"
    },
    {
      "constant": false,
      "inputs": [
        {
          "internalType": "uint256",
          "name": "_trade",
          "type": "uint256"
        },
        {
          "internalType": "uint256",
          "name": "_bid",
          "type": "uint256"
        }
      ],
      "name": "cancelBid",
      "outputs": [],
      "payable": false,
      "stateMutability": "nonpayable",
      "type": "function"
    },
    {
      "constant": false,
      "inputs": [
        {
          "internalType": "address",
          "name": "_currencyTokenAddress",
          "type": "address"
        },
        {
          "internalType": "address",
          "name": "_itemTokenAddress",
          "type": "address"
        }
      ],
      "name": "lateInitializee",
      "outputs": [],
      "payable": false,
      "stateMutability": "nonpayable",
      "type": "function"
    }
  ],
  "bytecode": "0x60806040523480156200001157600080fd5b5060405162003d0938038062003d098339818101604052620000379190810190620001a0565b6000620000496200018160201b60201c565b9050806000806101000a81548173ffffffffffffffffffffffffffffffffffffffff021916908373ffffffffffffffffffffffffffffffffffffffff1602179055508073ffffffffffffffffffffffffffffffffffffffff16600073ffffffffffffffffffffffffffffffffffffffff167f8be0079c531659141344cd1fd0a4f28419497f9722a3daafe3b4186f6b6457e060405160405180910390a35081600360006101000a81548173ffffffffffffffffffffffffffffffffffffffff021916908373ffffffffffffffffffffffffffffffffffffffff16021790555080600460006101000a81548173ffffffffffffffffffffffffffffffffffffffff021916908373ffffffffffffffffffffffffffffffffffffffff1602179055506000600881905550600060098190555050506200022f565b600033905090565b6000815190506200019a8162000215565b92915050565b60008060408385031215620001b457600080fd5b6000620001c48582860162000189565b9250506020620001d78582860162000189565b9150509250929050565b6000620001ee82620001f5565b9050919050565b600073ffffffffffffffffffffffffffffffffffffffff82169050919050565b6200022081620001e1565b81146200022c57600080fd5b50565b613aca806200023f6000396000f3fe608060405234801561001057600080fd5b50600436106101585760003560e01c80638da5cb5b116100c3578063b91816111161007c578063b9181611146103e3578063c8691b2a14610413578063cf1c316a14610449578063d0ff01bb14610465578063f2fde38b14610481578063fe41146b1461049d57610158565b80638da5cb5b146103195780638f32d59b14610337578063a18861a314610355578063a49e945d14610373578063a7a38f0b1461038f578063a9c7c536146103c757610158565b80634423c5f1116101155780634423c5f11461023c578063485d7d94146102705780634b3936051461028c5780634d2ef416146102a8578063582c7ffd146102d8578063715018a61461030f57610158565b8063025313a21461015d57806302d2838b1461017b57806309ec6cc7146101975780631e6c598e146101b35780632db25e05146101eb5780632ebe0f1614610220575b600080fd5b6101656104bb565b6040516101729190613457565b60405180910390f35b61019560048036036101909190810190612e9d565b6104ca565b005b6101b160048036036101ac9190810190612e9d565b610a22565b005b6101cd60048036036101c89190810190612e9d565b610e7b565b6040516101e299989796959493929190613517565b60405180910390f35b61020560048036036102009190810190612e9d565b610f09565b604051610217969594939291906136e4565b60405180910390f35b61023a60048036036102359190810190612e38565b61106c565b005b61025660048036036102519190810190612e9d565b6110fa565b604051610267959493929190613691565b60405180910390f35b61028a60048036036102859190810190612e0f565b611150565b005b6102a660048036036102a19190810190612ec6565b6112bd565b005b6102c260048036036102bd9190810190612e9d565b6116f5565b6040516102cf919061374c565b60405180910390f35b6102f260048036036102ed9190810190612ec6565b61184d565b604051610306989796959493929190613613565b60405180910390f35b610317611a75565b005b610321611b7b565b60405161032e9190613457565b60405180910390f35b61033f611ba4565b60405161034c919061376e565b60405180910390f35b61035d611c02565b60405161036a91906138c9565b60405180910390f35b61038d60048036036103889190810190612f02565b611c0f565b005b6103a960048036036103a49190810190612e9d565b611f7f565b6040516103be99989796959493929190613517565b60405180910390f35b6103e160048036036103dc9190810190612ec6565b61201a565b005b6103fd60048036036103f89190810190612e0f565b61257e565b60405161040a919061376e565b60405180910390f35b61042d60048036036104289190810190612e9d565b61259e565b60405161044097969594939291906135a4565b60405180910390f35b610463600480360361045e9190810190612e0f565b61270a565b005b61047f600480360361047a9190810190612f02565b61283d565b005b61049b60048036036104969190810190612e0f565b612b14565b005b6104a5612b67565b6040516104b291906138c9565b60405180910390f35b60008060019050805491505090565b6104d2612ca7565b60056000838152602001908152602001600020604051806101200160405290816000820160009054906101000a900473ffffffffffffffffffffffffffffffffffffffff1673ffffffffffffffffffffffffffffffffffffffff1673ffffffffffffffffffffffffffffffffffffffff1681526020016001820160009054906101000a900473ffffffffffffffffffffffffffffffffffffffff1673ffffffffffffffffffffffffffffffffffffffff1673ffffffffffffffffffffffffffffffffffffffff16815260200160028201548152602001600382015481526020016004820154815260200160058201548152602001600782015481526020016008820154815260200160098201548152505090507f4f70656e0000000000000000000000000000000000000000000000000000000081608001511461064b576040517f08c379a0000000000000000000000000000000000000000000000000000000008152600401610642906137a9565b60405180910390fd5b7f4f666665720000000000000000000000000000000000000000000000000000008160a00151146106b1576040517f08c379a00000000000000000000000000000000000000000000000000000000081526004016106a890613889565b60405180910390fd5b600360009054906101000a900473ffffffffffffffffffffffffffffffffffffffff1673ffffffffffffffffffffffffffffffffffffffff166323b872dd33836020015184606001516040518463ffffffff1660e01b815260040161071893929190613472565b602060405180830381600087803b15801561073257600080fd5b505af1158015610746573d6000803e3d6000fd5b505050506040513d601f19601f8201168201806040525061076a9190810190612e74565b50600460009054906101000a900473ffffffffffffffffffffffffffffffffffffffff1673ffffffffffffffffffffffffffffffffffffffff166323b872dd303384604001516040518463ffffffff1660e01b81526004016107ce939291906134a9565b600060405180830381600087803b1580156107e857600080fd5b505af11580156107fc573d6000803e3d6000fd5b505050507f45786563757465640000000000000000000000000000000000000000000000006005600084815260200190815260200160002060040181905550336005600084815260200190815260200160002060000160006101000a81548173ffffffffffffffffffffffffffffffffffffffff021916908373ffffffffffffffffffffffffffffffffffffffff1602179055506007600560008481526020019081526020016000209080600181540180825580915050906001820390600052602060002090600a0201600090919290919091506000820160009054906101000a900473ffffffffffffffffffffffffffffffffffffffff168160000160006101000a81548173ffffffffffffffffffffffffffffffffffffffff021916908373ffffffffffffffffffffffffffffffffffffffff1602179055506001820160009054906101000a900473ffffffffffffffffffffffffffffffffffffffff168160010160006101000a81548173ffffffffffffffffffffffffffffffffffffffff021916908373ffffffffffffffffffffffffffffffffffffffff160217905550600282015481600201556003820154816003015560048201548160040155600582015481600501556007820154816007015560088201548160080155600982015481600901555050507f4d38ed2c5ea671a5ccddc331f0ebebd94a60aaf6e572543497485d4d148f9edf82604051610a1691906138e4565b60405180910390a15050565b610a2a612ca7565b60056000838152602001908152602001600020604051806101200160405290816000820160009054906101000a900473ffffffffffffffffffffffffffffffffffffffff1673ffffffffffffffffffffffffffffffffffffffff1673ffffffffffffffffffffffffffffffffffffffff1681526020016001820160009054906101000a900473ffffffffffffffffffffffffffffffffffffffff1673ffffffffffffffffffffffffffffffffffffffff1673ffffffffffffffffffffffffffffffffffffffff1681526020016002820154815260200160038201548152602001600482015481526020016005820154815260200160078201548152602001600882015481526020016009820154815250509050806020015173ffffffffffffffffffffffffffffffffffffffff163373ffffffffffffffffffffffffffffffffffffffff1614610baf576040517f08c379a0000000000000000000000000000000000000000000000000000000008152600401610ba6906137c9565b60405180910390fd5b7f4f70656e00000000000000000000000000000000000000000000000000000000816080015114610c15576040517f08c379a0000000000000000000000000000000000000000000000000000000008152600401610c0c906137a9565b60405180910390fd5b600460009054906101000a900473ffffffffffffffffffffffffffffffffffffffff1673ffffffffffffffffffffffffffffffffffffffff166323b872dd30836020015184604001516040518463ffffffff1660e01b8152600401610c7c939291906134e0565b600060405180830381600087803b158015610c9657600080fd5b505af1158015610caa573d6000803e3d6000fd5b505050507f43616e63656c6c6564000000000000000000000000000000000000000000000060056000848152602001908152602001600020600401819055506007600560008481526020019081526020016000209080600181540180825580915050906001820390600052602060002090600a0201600090919290919091506000820160009054906101000a900473ffffffffffffffffffffffffffffffffffffffff168160000160006101000a81548173ffffffffffffffffffffffffffffffffffffffff021916908373ffffffffffffffffffffffffffffffffffffffff1602179055506001820160009054906101000a900473ffffffffffffffffffffffffffffffffffffffff168160010160006101000a81548173ffffffffffffffffffffffffffffffffffffffff021916908373ffffffffffffffffffffffffffffffffffffffff160217905550600282015481600201556003820154816003015560048201548160040155600582015481600501556007820154816007015560088201548160080155600982015481600901555050507f4d38ed2c5ea671a5ccddc331f0ebebd94a60aaf6e572543497485d4d148f9edf82604051610e6f919061390b565b60405180910390a15050565b60056020528060005260406000206000915090508060000160009054906101000a900473ffffffffffffffffffffffffffffffffffffffff16908060010160009054906101000a900473ffffffffffffffffffffffffffffffffffffffff16908060020154908060030154908060040154908060050154908060070154908060080154908060090154905089565b60008060008060006060610f1b612ca7565b60056000898152602001908152602001600020604051806101200160405290816000820160009054906101000a900473ffffffffffffffffffffffffffffffffffffffff1673ffffffffffffffffffffffffffffffffffffffff1673ffffffffffffffffffffffffffffffffffffffff1681526020016001820160009054906101000a900473ffffffffffffffffffffffffffffffffffffffff1673ffffffffffffffffffffffffffffffffffffffff1673ffffffffffffffffffffffffffffffffffffffff16815260200160028201548152602001600382015481526020016004820154815260200160058201548152602001600782015481526020016008820154815260200160098201548152505090506060611039896116f5565b905081602001518260400151836060015184608001518560a0015185975097509750975097509750505091939550919395565b81600360006101000a81548173ffffffffffffffffffffffffffffffffffffffff021916908373ffffffffffffffffffffffffffffffffffffffff16021790555080600460006101000a81548173ffffffffffffffffffffffffffffffffffffffff021916908373ffffffffffffffffffffffffffffffffffffffff16021790555060006008819055505050565b60066020528060005260406000206000915090508060000160009054906101000a900473ffffffffffffffffffffffffffffffffffffffff16908060010154908060020154908060030154908060040154905085565b611158611ba4565b611197576040517f08c379a000000000000000000000000000000000000000000000000000000000815260040161118e90613849565b60405180910390fd5b600073ffffffffffffffffffffffffffffffffffffffff168173ffffffffffffffffffffffffffffffffffffffff1614156111d157600080fd5b3373ffffffffffffffffffffffffffffffffffffffff168173ffffffffffffffffffffffffffffffffffffffff16141561120a57600080fd5b6000600260008373ffffffffffffffffffffffffffffffffffffffff1673ffffffffffffffffffffffffffffffffffffffff16815260200190815260200160002060006101000a81548160ff0219169083151502179055506000600160008373ffffffffffffffffffffffffffffffffffffffff1673ffffffffffffffffffffffffffffffffffffffff16815260200190815260200160002060006101000a81548160ff02191690831515021790555050565b6112c5612ca7565b60056000848152602001908152602001600020604051806101200160405290816000820160009054906101000a900473ffffffffffffffffffffffffffffffffffffffff1673ffffffffffffffffffffffffffffffffffffffff1673ffffffffffffffffffffffffffffffffffffffff1681526020016001820160009054906101000a900473ffffffffffffffffffffffffffffffffffffffff1673ffffffffffffffffffffffffffffffffffffffff1673ffffffffffffffffffffffffffffffffffffffff16815260200160028201548152602001600382015481526020016004820154815260200160058201548152602001600782015481526020016008820154815260200160098201548152505090506113e0612d25565b6005600085815260200190815260200160002060060160008481526020019081526020016000206040518060a00160405290816000820160009054906101000a900473ffffffffffffffffffffffffffffffffffffffff1673ffffffffffffffffffffffffffffffffffffffff1673ffffffffffffffffffffffffffffffffffffffff1681526020016001820154815260200160028201548152602001600382015481526020016004820154815250509050806000015173ffffffffffffffffffffffffffffffffffffffff163373ffffffffffffffffffffffffffffffffffffffff1614611504576040517f08c379a00000000000000000000000000000000000000000000000000000000081526004016114fb90613869565b60405180910390fd5b7f4f70656e0000000000000000000000000000000000000000000000000000000082608001511461156a576040517f08c379a0000000000000000000000000000000000000000000000000000000008152600401611561906137a9565b60405180910390fd5b7f42696400000000000000000000000000000000000000000000000000000000008260a00151146115d0576040517f08c379a00000000000000000000000000000000000000000000000000000000081526004016115c7906137e9565b60405180910390fd5b600460009054906101000a900473ffffffffffffffffffffffffffffffffffffffff1673ffffffffffffffffffffffffffffffffffffffff166323b872dd30836000015184602001516040518463ffffffff1660e01b8152600401611637939291906134e0565b600060405180830381600087803b15801561165157600080fd5b505af1158015611665573d6000803e3d6000fd5b505050507f43616e63656c6c65640000000000000000000000000000000000000000000000600560008681526020019081526020016000206006016000858152602001908152602001600020600301819055507f0ad2d2199d845a32488abc3995b0a8d14adec51279a740f1663a7dee204ad394846040516116e7919061390b565b60405180910390a150505050565b606080600560008481526020019081526020016000206007015460405190808252806020026020018201604052801561174857816020015b611735612d70565b81526020019060019003908161172d5790505b50905060008090505b6005600085815260200190815260200160002060070154811015611843576005600085815260200190815260200160002060060160008281526020019081526020016000206040518060a00160405290816000820160009054906101000a900473ffffffffffffffffffffffffffffffffffffffff1673ffffffffffffffffffffffffffffffffffffffff1673ffffffffffffffffffffffffffffffffffffffff16815260200160018201548152602001600282015481526020016003820154815260200160048201548152505082828151811061182b57fe5b60200260200101819052508080600101915050611751565b5080915050919050565b600080600080600080600080611861612ca7565b600560008c8152602001908152602001600020604051806101200160405290816000820160009054906101000a900473ffffffffffffffffffffffffffffffffffffffff1673ffffffffffffffffffffffffffffffffffffffff1673ffffffffffffffffffffffffffffffffffffffff1681526020016001820160009054906101000a900473ffffffffffffffffffffffffffffffffffffffff1673ffffffffffffffffffffffffffffffffffffffff1673ffffffffffffffffffffffffffffffffffffffff168152602001600282015481526020016003820154815260200160048201548152602001600582015481526020016007820154815260200160088201548152602001600982015481525050905061197c612d25565b600560008d815260200190815260200160002060060160008c81526020019081526020016000206040518060a00160405290816000820160009054906101000a900473ffffffffffffffffffffffffffffffffffffffff1673ffffffffffffffffffffffffffffffffffffffff1673ffffffffffffffffffffffffffffffffffffffff1681526020016001820154815260200160028201548152602001600382015481526020016004820154815250509050816020015182604001518360600151846080015184600001518560200151866040015187606001519950995099509950995099509950995050509295985092959890939650565b611a7d611ba4565b611abc576040517f08c379a0000000000000000000000000000000000000000000000000000000008152600401611ab390613849565b60405180910390fd5b600073ffffffffffffffffffffffffffffffffffffffff166000809054906101000a900473ffffffffffffffffffffffffffffffffffffffff1673ffffffffffffffffffffffffffffffffffffffff167f8be0079c531659141344cd1fd0a4f28419497f9722a3daafe3b4186f6b6457e060405160405180910390a360008060006101000a81548173ffffffffffffffffffffffffffffffffffffffff021916908373ffffffffffffffffffffffffffffffffffffffff160217905550565b60008060009054906101000a900473ffffffffffffffffffffffffffffffffffffffff16905090565b60008060009054906101000a900473ffffffffffffffffffffffffffffffffffffffff1673ffffffffffffffffffffffffffffffffffffffff16611be6612b71565b73ffffffffffffffffffffffffffffffffffffffff1614905090565b6000600780549050905090565b600460009054906101000a900473ffffffffffffffffffffffffffffffffffffffff1673ffffffffffffffffffffffffffffffffffffffff166323b872dd3330866040518463ffffffff1660e01b8152600401611c6e93929190613472565b600060405180830381600087803b158015611c8857600080fd5b505af1158015611c9c573d6000803e3d6000fd5b50505050611ca8612ca7565b604051806101200160405280600073ffffffffffffffffffffffffffffffffffffffff1681526020013373ffffffffffffffffffffffffffffffffffffffff1681526020018581526020018481526020017f4f70656e000000000000000000000000000000000000000000000000000000008152602001838152602001600081526020014281526020014281525090508060056000600854815260200190815260200160002060008201518160000160006101000a81548173ffffffffffffffffffffffffffffffffffffffff021916908373ffffffffffffffffffffffffffffffffffffffff16021790555060208201518160010160006101000a81548173ffffffffffffffffffffffffffffffffffffffff021916908373ffffffffffffffffffffffffffffffffffffffff16021790555060408201518160020155606082015181600301556080820151816004015560a0820151816005015560c0820151816007015560e08201518160080155610100820151816009015590505060016008600082825401925050819055506007819080600181540180825580915050906001820390600052602060002090600a02016000909192909190915060008201518160000160006101000a81548173ffffffffffffffffffffffffffffffffffffffff021916908373ffffffffffffffffffffffffffffffffffffffff16021790555060208201518160010160006101000a81548173ffffffffffffffffffffffffffffffffffffffff021916908373ffffffffffffffffffffffffffffffffffffffff16021790555060408201518160020155606082015181600301556080820151816004015560a0820151816005015560c0820151816007015560e0820151816008015561010082015181600901555050507f4d38ed2c5ea671a5ccddc331f0ebebd94a60aaf6e572543497485d4d148f9edf600160085403604051611f719190613932565b60405180910390a150505050565b60078181548110611f8c57fe5b90600052602060002090600a02016000915090508060000160009054906101000a900473ffffffffffffffffffffffffffffffffffffffff16908060010160009054906101000a900473ffffffffffffffffffffffffffffffffffffffff16908060020154908060030154908060040154908060050154908060070154908060080154908060090154905089565b612022612ca7565b60056000848152602001908152602001600020604051806101200160405290816000820160009054906101000a900473ffffffffffffffffffffffffffffffffffffffff1673ffffffffffffffffffffffffffffffffffffffff1673ffffffffffffffffffffffffffffffffffffffff1681526020016001820160009054906101000a900473ffffffffffffffffffffffffffffffffffffffff1673ffffffffffffffffffffffffffffffffffffffff1673ffffffffffffffffffffffffffffffffffffffff1681526020016002820154815260200160038201548152602001600482015481526020016005820154815260200160078201548152602001600882015481526020016009820154815250509050806020015173ffffffffffffffffffffffffffffffffffffffff163373ffffffffffffffffffffffffffffffffffffffff16146121a7576040517f08c379a000000000000000000000000000000000000000000000000000000000815260040161219e90613829565b60405180910390fd5b7f4f70656e0000000000000000000000000000000000000000000000000000000081608001511461220d576040517f08c379a0000000000000000000000000000000000000000000000000000000008152600401612204906137a9565b60405180910390fd5b7f42696400000000000000000000000000000000000000000000000000000000008160a0015114612273576040517f08c379a000000000000000000000000000000000000000000000000000000000815260040161226a906138a9565b60405180910390fd5b61227b612d25565b6005600085815260200190815260200160002060060160008481526020019081526020016000206040518060a00160405290816000820160009054906101000a900473ffffffffffffffffffffffffffffffffffffffff1673ffffffffffffffffffffffffffffffffffffffff1673ffffffffffffffffffffffffffffffffffffffff1681526020016001820154815260200160028201548152602001600382015481526020016004820154815250509050600360009054906101000a900473ffffffffffffffffffffffffffffffffffffffff1673ffffffffffffffffffffffffffffffffffffffff166323b872dd33836000015184604001516040518463ffffffff1660e01b815260040161239493929190613472565b602060405180830381600087803b1580156123ae57600080fd5b505af11580156123c2573d6000803e3d6000fd5b505050506040513d601f19601f820116820180604052506123e69190810190612e74565b50600460009054906101000a900473ffffffffffffffffffffffffffffffffffffffff1673ffffffffffffffffffffffffffffffffffffffff166323b872dd30836000015184602001516040518463ffffffff1660e01b815260040161244e939291906134e0565b600060405180830381600087803b15801561246857600080fd5b505af115801561247c573d6000803e3d6000fd5b505050507f457865637574656400000000000000000000000000000000000000000000000060056000868152602001908152602001600020600401819055507f4578656375746564000000000000000000000000000000000000000000000000600560008681526020019081526020016000206006016000858152602001908152602001600020600301819055507f4d38ed2c5ea671a5ccddc331f0ebebd94a60aaf6e572543497485d4d148f9edf8460405161253991906138e4565b60405180910390a17f0ad2d2199d845a32488abc3995b0a8d14adec51279a740f1663a7dee204ad3948360405161257091906138e4565b60405180910390a150505050565b60026020528060005260406000206000915054906101000a900460ff1681565b60008060008060008060006125b1612ca7565b600789815481106125be57fe5b90600052602060002090600a0201604051806101200160405290816000820160009054906101000a900473ffffffffffffffffffffffffffffffffffffffff1673ffffffffffffffffffffffffffffffffffffffff1673ffffffffffffffffffffffffffffffffffffffff1681526020016001820160009054906101000a900473ffffffffffffffffffffffffffffffffffffffff1673ffffffffffffffffffffffffffffffffffffffff1673ffffffffffffffffffffffffffffffffffffffff1681526020016002820154815260200160038201548152602001600482015481526020016005820154815260200160078201548152602001600882015481526020016009820154815250509050806020015181600001518260400151836060015184608001518560e00151866101000151975097509750975097509750975050919395979092949650565b612712611ba4565b612751576040517f08c379a000000000000000000000000000000000000000000000000000000000815260040161274890613849565b60405180910390fd5b600073ffffffffffffffffffffffffffffffffffffffff168173ffffffffffffffffffffffffffffffffffffffff16141561278b57600080fd5b6001600260008373ffffffffffffffffffffffffffffffffffffffff1673ffffffffffffffffffffffffffffffffffffffff16815260200190815260200160002060006101000a81548160ff02191690831515021790555060018060008373ffffffffffffffffffffffffffffffffffffffff1673ffffffffffffffffffffffffffffffffffffffff16815260200190815260200160002060006101000a81548160ff02191690831515021790555050565b612845612ca7565b600560006001600854038152602001908152602001600020604051806101200160405290816000820160009054906101000a900473ffffffffffffffffffffffffffffffffffffffff1673ffffffffffffffffffffffffffffffffffffffff1673ffffffffffffffffffffffffffffffffffffffff1681526020016001820160009054906101000a900473ffffffffffffffffffffffffffffffffffffffff1673ffffffffffffffffffffffffffffffffffffffff1673ffffffffffffffffffffffffffffffffffffffff16815260200160028201548152602001600382015481526020016004820154815260200160058201548152602001600782015481526020016008820154815260200160098201548152505090507f42696400000000000000000000000000000000000000000000000000000000008160a00151146129c3576040517f08c379a00000000000000000000000000000000000000000000000000000000081526004016129ba90613809565b60405180910390fd5b6040518060a001604052803373ffffffffffffffffffffffffffffffffffffffff1681526020018581526020018481526020017f4f70656e0000000000000000000000000000000000000000000000000000000081526020018381525060056000600854815260200190815260200160002060060160008360c00151815260200190815260200160002060008201518160000160006101000a81548173ffffffffffffffffffffffffffffffffffffffff021916908373ffffffffffffffffffffffffffffffffffffffff1602179055506020820151816001015560408201518160020155606082015181600301556080820151816004015590505060018160c00181815101915081815250507f0ad2d2199d845a32488abc3995b0a8d14adec51279a740f1663a7dee204ad39460018260c0015103604051612b069190613932565b60405180910390a150505050565b612b1c611ba4565b612b5b576040517f08c379a0000000000000000000000000000000000000000000000000000000008152600401612b5290613849565b60405180910390fd5b612b6481612b79565b50565b6000600854905090565b600033905090565b600073ffffffffffffffffffffffffffffffffffffffff168173ffffffffffffffffffffffffffffffffffffffff161415612be9576040517f08c379a0000000000000000000000000000000000000000000000000000000008152600401612be090613789565b60405180910390fd5b8073ffffffffffffffffffffffffffffffffffffffff166000809054906101000a900473ffffffffffffffffffffffffffffffffffffffff1673ffffffffffffffffffffffffffffffffffffffff167f8be0079c531659141344cd1fd0a4f28419497f9722a3daafe3b4186f6b6457e060405160405180910390a3806000806101000a81548173ffffffffffffffffffffffffffffffffffffffff021916908373ffffffffffffffffffffffffffffffffffffffff16021790555050565b604051806101200160405280600073ffffffffffffffffffffffffffffffffffffffff168152602001600073ffffffffffffffffffffffffffffffffffffffff168152602001600081526020016000815260200160008019168152602001600080191681526020016000815260200160008152602001600081525090565b6040518060a00160405280600073ffffffffffffffffffffffffffffffffffffffff168152602001600081526020016000815260200160008019168152602001600080191681525090565b6040518060a00160405280600073ffffffffffffffffffffffffffffffffffffffff168152602001600081526020016000815260200160008019168152602001600080191681525090565b600081359050612dca81613a2b565b92915050565b600081519050612ddf81613a42565b92915050565b600081359050612df481613a59565b92915050565b600081359050612e0981613a70565b92915050565b600060208284031215612e2157600080fd5b6000612e2f84828501612dbb565b91505092915050565b60008060408385031215612e4b57600080fd5b6000612e5985828601612dbb565b9250506020612e6a85828601612dbb565b9150509250929050565b600060208284031215612e8657600080fd5b6000612e9484828501612dd0565b91505092915050565b600060208284031215612eaf57600080fd5b6000612ebd84828501612dfa565b91505092915050565b60008060408385031215612ed957600080fd5b6000612ee785828601612dfa565b9250506020612ef885828601612dfa565b9150509250929050565b600080600060608486031215612f1757600080fd5b6000612f2586828701612dfa565b9350506020612f3686828701612dfa565b9250506040612f4786828701612de5565b9150509250925092565b6000612f5d83836133d1565b60a08301905092915050565b612f72816139f5565b82525050565b612f81816139a3565b82525050565b612f90816139a3565b82525050565b6000612fa182613969565b612fab8185613981565b9350612fb683613959565b8060005b83811015612fe7578151612fce8882612f51565b9750612fd983613974565b925050600181019050612fba565b5085935050505092915050565b612ffd816139b5565b82525050565b61300c816139c1565b82525050565b61301b816139c1565b82525050565b7f4578656375746564000000000000000000000000000000000000000000000000815250565b6000613054602683613992565b91507f4f776e61626c653a206e6577206f776e657220697320746865207a65726f206160008301527f64647265737300000000000000000000000000000000000000000000000000006020830152604082019050919050565b60006130ba601283613992565b91507f5472616465206973206e6f74204f70656e2e00000000000000000000000000006000830152602082019050919050565b60006130fa602683613992565b91507f54726164652063616e2062652063616e63656c6c6564206f6e6c79206279207060008301527f6f737465722e00000000000000000000000000000000000000000000000000006020830152604082019050919050565b6000613160601683613992565b91507f5472616465206973206e6f742062696420747970652e000000000000000000006000830152602082019050919050565b7f43616e63656c6c65640000000000000000000000000000000000000000000000815250565b60006131c6602583613992565b91507f5472616465206d75737420626520626964207479706520746f206f70656e206160008301527f206269642e0000000000000000000000000000000000000000000000000000006020830152604082019050919050565b600061322c602383613992565b91507f4269642063616e206265206163636570746564206f6e6c7920627920706f737460008301527f65722e00000000000000000000000000000000000000000000000000000000006020830152604082019050919050565b7f4f70656e00000000000000000000000000000000000000000000000000000000815250565b60006132b8602083613992565b91507f4f776e61626c653a2063616c6c6572206973206e6f7420746865206f776e65726000830152602082019050919050565b60006132f8602483613992565b91507f4269642063616e2062652063616e63656c6c6564206f6e6c7920627920706f7360008301527f7465722e000000000000000000000000000000000000000000000000000000006020830152604082019050919050565b600061335e601c83613992565b91507f5472616465206973206e6f7420616e206f666665722074797065202e000000006000830152602082019050919050565b600061339e601a83613992565b91507f5472616465206973206e6f7420616e206269642074797065202e0000000000006000830152602082019050919050565b60a0820160008201516133e76000850182612f78565b5060208201516133fa6020850182613439565b50604082015161340d6040850182613439565b5060608201516134206060850182613003565b5060808201516134336080850182613003565b50505050565b613442816139eb565b82525050565b613451816139eb565b82525050565b600060208201905061346c6000830184612f87565b92915050565b60006060820190506134876000830186612f69565b6134946020830185612f87565b6134a16040830184613448565b949350505050565b60006060820190506134be6000830186612f87565b6134cb6020830185612f69565b6134d86040830184613448565b949350505050565b60006060820190506134f56000830186612f87565b6135026020830185612f87565b61350f6040830184613448565b949350505050565b60006101208201905061352d600083018c612f87565b61353a602083018b612f87565b613547604083018a613448565b6135546060830189613448565b6135616080830188613012565b61356e60a0830187613012565b61357b60c0830186613448565b61358860e0830185613448565b613596610100830184613448565b9a9950505050505050505050565b600060e0820190506135b9600083018a612f87565b6135c66020830189612f87565b6135d36040830188613448565b6135e06060830187613448565b6135ed6080830186613012565b6135fa60a0830185613448565b61360760c0830184613448565b98975050505050505050565b600061010082019050613629600083018b612f87565b613636602083018a613448565b6136436040830189613448565b6136506060830188613012565b61365d6080830187612f87565b61366a60a0830186613448565b61367760c0830185613448565b61368460e0830184613012565b9998505050505050505050565b600060a0820190506136a66000830188612f87565b6136b36020830187613448565b6136c06040830186613448565b6136cd6060830185613012565b6136da6080830184613012565b9695505050505050565b600060c0820190506136f96000830189612f87565b6137066020830188613448565b6137136040830187613448565b6137206060830186613012565b61372d6080830185613012565b81810360a083015261373f8184612f96565b9050979650505050505050565b600060208201905081810360008301526137668184612f96565b905092915050565b60006020820190506137836000830184612ff4565b92915050565b600060208201905081810360008301526137a281613047565b9050919050565b600060208201905081810360008301526137c2816130ad565b9050919050565b600060208201905081810360008301526137e2816130ed565b9050919050565b6000602082019050818103600083015261380281613153565b9050919050565b60006020820190508181036000830152613822816131b9565b9050919050565b600060208201905081810360008301526138428161321f565b9050919050565b60006020820190508181036000830152613862816132ab565b9050919050565b60006020820190508181036000830152613882816132eb565b9050919050565b600060208201905081810360008301526138a281613351565b9050919050565b600060208201905081810360008301526138c281613391565b9050919050565b60006020820190506138de6000830184613448565b92915050565b60006040820190506138f96000830184613448565b61390560208301613021565b92915050565b60006040820190506139206000830184613448565b61392c60208301613193565b92915050565b60006040820190506139476000830184613448565b61395360208301613285565b92915050565b6000819050602082019050919050565b600081519050919050565b6000602082019050919050565b600082825260208201905092915050565b600082825260208201905092915050565b60006139ae826139cb565b9050919050565b60008115159050919050565b6000819050919050565b600073ffffffffffffffffffffffffffffffffffffffff82169050919050565b6000819050919050565b6000613a0082613a07565b9050919050565b6000613a1282613a19565b9050919050565b6000613a24826139cb565b9050919050565b613a34816139a3565b8114613a3f57600080fd5b50565b613a4b816139b5565b8114613a5657600080fd5b50565b613a62816139c1565b8114613a6d57600080fd5b50565b613a79816139eb565b8114613a8457600080fd5b5056fea365627a7a72315820c9292d4807764e7bd1f913ca7afa4fedd4e9f5f419ba557d1c2cb0b08b4b49046c6578706572696d656e74616cf564736f6c63430005110040",
  "source": "pragma solidity ^0.5.0;\npragma experimental ABIEncoderV2;\nimport \"@openzeppelin/contracts/ownership/Ownable.sol\";\nimport \"@openzeppelin/contracts/token/ERC20/IERC20.sol\";\nimport \"@openzeppelin/contracts/token/ERC721/IERC721.sol\";\nimport \"./AmanaAuthorizable.sol\";\n\n\n\n/**\n * @title AmanaMarketplace\n * @notice Implements the classifieds board market. The market will be governed\n * by an ERC20 token as currency, and an ERC721 token that represents the\n * ownership of the items being traded. Only ads for selling items are\n * implemented. The item tokenization is responsibility of the ERC721 contract\n * which should encode any item details.\n */\ncontract AmanaMarketplace is AmanaAuthorizable {\n    event TradeStatusChange(uint256 ad, bytes32 status);\n    event BidStatusChange(uint256 ad, bytes32 status);\n\n    IERC20 currencyToken;\n    IERC721 itemToken;\n\n    struct Trade {\n        address executer;\n        address poster;\n        uint256 item;\n        uint256 price;\n        bytes32 status; // Open, Executed, Cancelled\n        bytes32 tradeType; // Offer, Bid\n        mapping(uint256 => Bid) bids;\n        uint256 bidCounter;\n        uint256 openTime;\n        uint256 closeTime;\n    }\n\n    struct Bid {\n        address bidder;\n        uint256 item;\n        uint256 price;\n        bytes32 status; // Open, Executed, Cancelled\n        bytes32 visibility; // Open, OnlyOwner, \n    }\n\n    mapping(uint256 => Trade) public trades;\n    mapping(uint256 => Bid) public bids;\n    Trade[] public history;\n\n    uint256 tradeCounter;\n    uint256 bidCounter;\n\n    constructor (address _currencyTokenAddress, address _itemTokenAddress)\n        public\n    {\n        currencyToken = IERC20(_currencyTokenAddress);\n        itemToken = IERC721(_itemTokenAddress);\n        tradeCounter = 0;\n        bidCounter = 0;\n    }\n\n\n    function getHistoryCount() public view returns(uint count) {\n        return history.length;\n    }\n\n    function getHistory(uint256 _id) \n        public \n        view \n        returns (address, address, uint256, uint256, bytes32, uint256, uint256) {\n        Trade memory trade = history[_id];\n        return (trade.poster, trade.executer, trade.item, trade.price, trade.status, trade.openTime, trade.closeTime);\n    }\n\n    function getTradeCounter()\n        public\n        view\n        returns(uint256)\n    {\n        return tradeCounter;\n    }\n\n    function getAllTradeBids(uint256 _trade) public view returns (Bid[] memory){\n    \n        Bid[] memory bidList = new Bid[](trades[_trade].bidCounter);\n        for (uint i = 0; i < trades[_trade].bidCounter; i++) {\n            bidList[i] = trades[_trade].bids[i];\n        }\n        return bidList;\n    }\n\n    /**\n     * @dev Returns the details for a trade.\n     * @param _trade The id for the trade.\n     */\n    function getTrade(uint256 _trade)\n        public\n        view\n        returns(address, uint256, uint256, bytes32, bytes32, Bid[] memory)\n    {\n        Trade memory trade = trades[_trade];\n        Bid[] memory bidList = getAllTradeBids(_trade);\n        return (trade.poster, trade.item, trade.price, trade.status, trade.tradeType, bidList);\n    }\n\n    /**\n     * @dev Returns the details for a bid.\n     * @param _trade The id for the trade.\n     * @param _bid The id for the bid.\n     */\n    function getBid(uint256 _trade, uint256 _bid)\n        public\n        view\n        returns(address, uint256, uint256, bytes32, address, uint256, uint256, bytes32)\n    {\n        Trade memory trade = trades[_trade];\n        Bid memory bid = trades[_trade].bids[_bid];\n        return (trade.poster, trade.item, trade.price, trade.status, bid.bidder, bid.item, bid.price, bid.status);\n    }\n\n    /**\n     * @dev Opens a new bid. Puts _item in escrow.\n     * @param _item The id for the item to bid on.\n     * @param _price The amount of currency for which to bid the item.\n     * @param _visibility The visibility for which to bid the item.\n     */\n    function openBid(uint256 _item, uint256 _price, bytes32 _visibility)\n        public\n    {\n        Trade memory trade = trades[tradeCounter-1];\n        require(trade.tradeType == \"Bid\", \"Trade must be bid type to open a bid.\");\n        trades[tradeCounter].bids[trade.bidCounter] = Bid({\n            bidder: msg.sender,\n            item: _item,\n            price: _price,\n            status: \"Open\",\n            visibility : _visibility\n        });\n        trade.bidCounter += 1;\n        emit BidStatusChange(trade.bidCounter - 1, \"Open\");\n    }\n\n\n    /**\n     * @dev Opens a new trade. Puts _item in escrow.\n     * @param _item The id for the item to trade.\n     * @param _price The amount of currency for which to trade the item.\n     */\n    function openTrade(uint256 _item, uint256 _price, bytes32 _tradeType)\n        public\n    {\n        itemToken.transferFrom(msg.sender, address(this), _item);\n        Trade memory trade = Trade({\n            poster: msg.sender,\n            executer: 0x0000000000000000000000000000000000000000,\n            item: _item,\n            price: _price,\n            status: \"Open\",\n            tradeType: _tradeType,\n            bidCounter: 0,\n            openTime: now,\n            closeTime: now\n        });\n        trades[tradeCounter] = trade;\n        tradeCounter += 1;\n        history.push(trade);\n        emit TradeStatusChange(tradeCounter - 1, \"Open\");\n    }\n\n    /**\n     * @dev Executes a trade. Must have approved this contract to transfer the\n     * amount of currency specified to the poster. Transfers ownership of the\n     * item to the filler.\n     * @param _trade The id of an existing trade\n     */\n    function executeTrade(uint256 _trade)\n        public\n    {\n        Trade memory trade = trades[_trade];\n        require(trade.status == \"Open\", \"Trade is not Open.\");\n        require(trade.tradeType == \"Offer\", \"Trade is not an offer type .\");\n        currencyToken.transferFrom(msg.sender, trade.poster, trade.price);\n        itemToken.transferFrom(address(this), msg.sender, trade.item);\n        trades[_trade].status = \"Executed\";\n        trades[_trade].executer = msg.sender;\n        history.push(trades[_trade]);\n        emit TradeStatusChange(_trade, \"Executed\");\n    }\n\n    /**\n     * @dev Executes a trade. Must have approved this contract to transfer the\n     * amount of currency specified to the poster. Transfers ownership of the\n     * item to the filler.\n     * @param _trade The id of an existing trade\n     */\n    function executeBid(uint256 _trade, uint256 _bid)\n        public\n    {\n        Trade memory trade = trades[_trade];\n        require(\n            msg.sender == trade.poster,\n            \"Bid can be accepted only by poster.\"\n        );\n        require(trade.status == \"Open\", \"Trade is not Open.\");\n        require(trade.tradeType == \"Bid\", \"Trade is not an bid type .\");\n        Bid memory bid = trades[_trade].bids[_bid];\n        currencyToken.transferFrom(msg.sender, bid.bidder, bid.price);\n        itemToken.transferFrom(address(this), bid.bidder, bid.item);\n        trades[_trade].status = \"Executed\";\n        trades[_trade].bids[_bid].status = \"Executed\";\n        emit TradeStatusChange(_trade, \"Executed\");\n        emit BidStatusChange(_bid, \"Executed\");\n    }\n\n    /**\n     * @dev Cancels a trade by the poster.\n     * @param _trade The trade to be cancelled.\n     */\n    function cancelTrade(uint256 _trade)\n        public\n    {\n        Trade memory trade = trades[_trade];\n        require(\n            msg.sender == trade.poster,\n            \"Trade can be cancelled only by poster.\"\n        );\n        require(trade.status == \"Open\", \"Trade is not Open.\");\n        itemToken.transferFrom(address(this), trade.poster, trade.item);\n        trades[_trade].status = \"Cancelled\";\n        history.push(trades[_trade]);\n        emit TradeStatusChange(_trade, \"Cancelled\");\n    }\n\n    /**\n     * @dev Cancels a trade by the poster.\n     * @param _trade The trade that contain the bid to be cancelled.\n     * @param _bid The bid to be cancelled.\n     */\n    function cancelBid(uint256 _trade, uint256 _bid)\n        public\n    {\n        Trade memory trade = trades[_trade];\n        Bid memory bid = trades[_trade].bids[_bid];\n        require(\n            msg.sender == bid.bidder,\n            \"Bid can be cancelled only by poster.\"\n        );\n        require(trade.status == \"Open\", \"Trade is not Open.\");\n        require(trade.tradeType == \"Bid\", \"Trade is not bid type.\");\n        itemToken.transferFrom(address(this), bid.bidder, bid.item);\n        trades[_trade].bids[_bid].status = \"Cancelled\";\n        emit BidStatusChange(_trade, \"Cancelled\");\n    }\n\n\n    function lateInitializee (address _currencyTokenAddress, address _itemTokenAddress)\n        public\n    {\n        currencyToken = IERC20(_currencyTokenAddress);\n        itemToken = IERC721(_itemTokenAddress);\n        tradeCounter = 0;\n    }\n}",
  "sourcePath": "/Users/lmehdi/Desktop/hackathon-blockchain/contracts/AmanaMarketplace.sol",
  "compiler": {
    "name": "solc",
    "version": "0.5.17+commit.d19bba13.Emscripten.clang"
  },
  "schemaVersion": "3.4.3",
  "updatedAt": "2021-10-31T19:13:46.811Z",
  "networkType": "ethereum",
  "devdoc": {
    "methods": {
      "cancelBid(uint256,uint256)": {
        "details": "Cancels a trade by the poster.",
        "params": {
          "_bid": "The bid to be cancelled.",
          "_trade": "The trade that contain the bid to be cancelled."
        }
      },
      "cancelTrade(uint256)": {
        "details": "Cancels a trade by the poster.",
        "params": {
          "_trade": "The trade to be cancelled."
        }
      },
      "executeBid(uint256,uint256)": {
        "details": "Executes a trade. Must have approved this contract to transfer the amount of currency specified to the poster. Transfers ownership of the item to the filler.",
        "params": {
          "_trade": "The id of an existing trade"
        }
      },
      "executeTrade(uint256)": {
        "details": "Executes a trade. Must have approved this contract to transfer the amount of currency specified to the poster. Transfers ownership of the item to the filler.",
        "params": {
          "_trade": "The id of an existing trade"
        }
      },
      "getBid(uint256,uint256)": {
        "details": "Returns the details for a bid.",
        "params": {
          "_bid": "The id for the bid.",
          "_trade": "The id for the trade."
        }
      },
      "getTrade(uint256)": {
        "details": "Returns the details for a trade.",
        "params": {
          "_trade": "The id for the trade."
        }
      },
      "isOwner()": {
        "details": "Returns true if the caller is the current owner."
      },
      "openBid(uint256,uint256,bytes32)": {
        "details": "Opens a new bid. Puts _item in escrow.",
        "params": {
          "_item": "The id for the item to bid on.",
          "_price": "The amount of currency for which to bid the item.",
          "_visibility": "The visibility for which to bid the item."
        }
      },
      "openTrade(uint256,uint256,bytes32)": {
        "details": "Opens a new trade. Puts _item in escrow.",
        "params": {
          "_item": "The id for the item to trade.",
          "_price": "The amount of currency for which to trade the item."
        }
      },
      "owner()": {
        "details": "Returns the address of the current owner."
      },
      "proxyOwner()": {
        "details": "Tells the address of the owner",
        "return": "the address of the owner"
      },
      "renounceOwnership()": {
        "details": "Leaves the contract without owner. It will not be possible to call `onlyOwner` functions anymore. Can only be called by the current owner.     * NOTE: Renouncing ownership will leave the contract without an owner, thereby removing any functionality that is only available to the owner."
      },
      "transferOwnership(address)": {
        "details": "Transfers ownership of the contract to a new account (`newOwner`). Can only be called by the current owner."
      }
    },
    "title": "AmanaMarketplace"
  },
  "userdoc": {
    "methods": {},
    "notice": "Implements the classifieds board market. The market will be governed by an ERC20 token as currency, and an ERC721 token that represents the ownership of the items being traded. Only ads for selling items are implemented. The item tokenization is responsibility of the ERC721 contract which should encode any item details."
  }
}